{
  "_format": "hh-sol-artifact-1",
  "contractName": "CreditXLendingPool",
  "sourceName": "contracts/CreditXLendingPool.sol",
  "abi": [
    {
      "inputs": [
        {
          "internalType": "address",
          "name": "_reputation",
          "type": "address"
        },
        {
          "internalType": "address",
          "name": "_verifier",
          "type": "address"
        }
      ],
      "stateMutability": "nonpayable",
      "type": "constructor"
    },
    {
      "inputs": [
        {
          "internalType": "address",
          "name": "owner",
          "type": "address"
        }
      ],
      "name": "OwnableInvalidOwner",
      "type": "error"
    },
    {
      "inputs": [
        {
          "internalType": "address",
          "name": "account",
          "type": "address"
        }
      ],
      "name": "OwnableUnauthorizedAccount",
      "type": "error"
    },
    {
      "inputs": [],
      "name": "ReentrancyGuardReentrantCall",
      "type": "error"
    },
    {
      "anonymous": false,
      "inputs": [
        {
          "indexed": true,
          "internalType": "address",
          "name": "lender",
          "type": "address"
        },
        {
          "indexed": false,
          "internalType": "uint256",
          "name": "amount",
          "type": "uint256"
        }
      ],
      "name": "Deposited",
      "type": "event"
    },
    {
      "anonymous": false,
      "inputs": [
        {
          "indexed": true,
          "internalType": "address",
          "name": "borrower",
          "type": "address"
        },
        {
          "indexed": true,
          "internalType": "address",
          "name": "liquidator",
          "type": "address"
        },
        {
          "indexed": false,
          "internalType": "uint256",
          "name": "collateralSeized",
          "type": "uint256"
        },
        {
          "indexed": false,
          "internalType": "uint256",
          "name": "debtRepaid",
          "type": "uint256"
        }
      ],
      "name": "Liquidated",
      "type": "event"
    },
    {
      "anonymous": false,
      "inputs": [
        {
          "indexed": true,
          "internalType": "address",
          "name": "borrower",
          "type": "address"
        },
        {
          "indexed": false,
          "internalType": "uint256",
          "name": "borrowed",
          "type": "uint256"
        },
        {
          "indexed": false,
          "internalType": "uint256",
          "name": "collateral",
          "type": "uint256"
        },
        {
          "indexed": false,
          "internalType": "uint256",
          "name": "interestRate",
          "type": "uint256"
        },
        {
          "indexed": false,
          "internalType": "uint256",
          "name": "requiredLTV",
          "type": "uint256"
        },
        {
          "indexed": false,
          "internalType": "uint256",
          "name": "creditScore",
          "type": "uint256"
        }
      ],
      "name": "LoanCreated",
      "type": "event"
    },
    {
      "anonymous": false,
      "inputs": [
        {
          "indexed": true,
          "internalType": "address",
          "name": "borrower",
          "type": "address"
        },
        {
          "indexed": false,
          "internalType": "uint256",
          "name": "amount",
          "type": "uint256"
        },
        {
          "indexed": false,
          "internalType": "uint256",
          "name": "interest",
          "type": "uint256"
        }
      ],
      "name": "LoanRepaid",
      "type": "event"
    },
    {
      "anonymous": false,
      "inputs": [
        {
          "indexed": true,
          "internalType": "address",
          "name": "previousOwner",
          "type": "address"
        },
        {
          "indexed": true,
          "internalType": "address",
          "name": "newOwner",
          "type": "address"
        }
      ],
      "name": "OwnershipTransferred",
      "type": "event"
    },
    {
      "anonymous": false,
      "inputs": [
        {
          "indexed": true,
          "internalType": "address",
          "name": "lender",
          "type": "address"
        },
        {
          "indexed": false,
          "internalType": "uint256",
          "name": "amount",
          "type": "uint256"
        }
      ],
      "name": "Withdrawn",
      "type": "event"
    },
    {
      "inputs": [],
      "name": "BASE_RATE",
      "outputs": [
        {
          "internalType": "uint256",
          "name": "",
          "type": "uint256"
        }
      ],
      "stateMutability": "view",
      "type": "function"
    },
    {
      "inputs": [],
      "name": "LIQUIDATION_BONUS",
      "outputs": [
        {
          "internalType": "uint256",
          "name": "",
          "type": "uint256"
        }
      ],
      "stateMutability": "view",
      "type": "function"
    },
    {
      "inputs": [],
      "name": "MAX_RATE",
      "outputs": [
        {
          "internalType": "uint256",
          "name": "",
          "type": "uint256"
        }
      ],
      "stateMutability": "view",
      "type": "function"
    },
    {
      "inputs": [],
      "name": "MIN_RATE",
      "outputs": [
        {
          "internalType": "uint256",
          "name": "",
          "type": "uint256"
        }
      ],
      "stateMutability": "view",
      "type": "function"
    },
    {
      "inputs": [
        {
          "internalType": "uint256",
          "name": "borrowAmount",
          "type": "uint256"
        }
      ],
      "name": "borrow",
      "outputs": [],
      "stateMutability": "payable",
      "type": "function"
    },
    {
      "inputs": [],
      "name": "deposit",
      "outputs": [],
      "stateMutability": "payable",
      "type": "function"
    },
    {
      "inputs": [
        {
          "internalType": "address",
          "name": "",
          "type": "address"
        }
      ],
      "name": "deposits",
      "outputs": [
        {
          "internalType": "uint256",
          "name": "amount",
          "type": "uint256"
        },
        {
          "internalType": "uint256",
          "name": "timestamp",
          "type": "uint256"
        }
      ],
      "stateMutability": "view",
      "type": "function"
    },
    {
      "inputs": [
        {
          "internalType": "address",
          "name": "borrower",
          "type": "address"
        }
      ],
      "name": "getHealthFactor",
      "outputs": [
        {
          "internalType": "uint256",
          "name": "",
          "type": "uint256"
        }
      ],
      "stateMutability": "view",
      "type": "function"
    },
    {
      "inputs": [
        {
          "internalType": "address",
          "name": "borrower",
          "type": "address"
        }
      ],
      "name": "getInterestOwed",
      "outputs": [
        {
          "internalType": "uint256",
          "name": "",
          "type": "uint256"
        }
      ],
      "stateMutability": "view",
      "type": "function"
    },
    {
      "inputs": [],
      "name": "getUtilization",
      "outputs": [
        {
          "internalType": "uint256",
          "name": "",
          "type": "uint256"
        }
      ],
      "stateMutability": "view",
      "type": "function"
    },
    {
      "inputs": [
        {
          "internalType": "address",
          "name": "borrower",
          "type": "address"
        }
      ],
      "name": "liquidate",
      "outputs": [],
      "stateMutability": "nonpayable",
      "type": "function"
    },
    {
      "inputs": [
        {
          "internalType": "address",
          "name": "",
          "type": "address"
        }
      ],
      "name": "loans",
      "outputs": [
        {
          "internalType": "uint256",
          "name": "borrowed",
          "type": "uint256"
        },
        {
          "internalType": "uint256",
          "name": "collateral",
          "type": "uint256"
        },
        {
          "internalType": "uint256",
          "name": "interestRate",
          "type": "uint256"
        },
        {
          "internalType": "uint256",
          "name": "startTime",
          "type": "uint256"
        },
        {
          "internalType": "uint256",
          "name": "requiredLTV",
          "type": "uint256"
        },
        {
          "internalType": "bool",
          "name": "active",
          "type": "bool"
        }
      ],
      "stateMutability": "view",
      "type": "function"
    },
    {
      "inputs": [],
      "name": "owner",
      "outputs": [
        {
          "internalType": "address",
          "name": "",
          "type": "address"
        }
      ],
      "stateMutability": "view",
      "type": "function"
    },
    {
      "inputs": [
        {
          "internalType": "address",
          "name": "user",
          "type": "address"
        },
        {
          "internalType": "uint256",
          "name": "borrowAmount",
          "type": "uint256"
        }
      ],
      "name": "previewBorrow",
      "outputs": [
        {
          "internalType": "uint256",
          "name": "requiredCollateral",
          "type": "uint256"
        },
        {
          "internalType": "uint256",
          "name": "interestRateBps",
          "type": "uint256"
        },
        {
          "internalType": "uint256",
          "name": "creditScore",
          "type": "uint256"
        },
        {
          "internalType": "uint256",
          "name": "ltvBps",
          "type": "uint256"
        }
      ],
      "stateMutability": "view",
      "type": "function"
    },
    {
      "inputs": [],
      "name": "renounceOwnership",
      "outputs": [],
      "stateMutability": "nonpayable",
      "type": "function"
    },
    {
      "inputs": [],
      "name": "repay",
      "outputs": [],
      "stateMutability": "payable",
      "type": "function"
    },
    {
      "inputs": [],
      "name": "reputation",
      "outputs": [
        {
          "internalType": "contract CreditReputation",
          "name": "",
          "type": "address"
        }
      ],
      "stateMutability": "view",
      "type": "function"
    },
    {
      "inputs": [],
      "name": "totalBorrowed",
      "outputs": [
        {
          "internalType": "uint256",
          "name": "",
          "type": "uint256"
        }
      ],
      "stateMutability": "view",
      "type": "function"
    },
    {
      "inputs": [],
      "name": "totalDeposited",
      "outputs": [
        {
          "internalType": "uint256",
          "name": "",
          "type": "uint256"
        }
      ],
      "stateMutability": "view",
      "type": "function"
    },
    {
      "inputs": [],
      "name": "totalLiquidated",
      "outputs": [
        {
          "internalType": "uint256",
          "name": "",
          "type": "uint256"
        }
      ],
      "stateMutability": "view",
      "type": "function"
    },
    {
      "inputs": [],
      "name": "totalLoansIssued",
      "outputs": [
        {
          "internalType": "uint256",
          "name": "",
          "type": "uint256"
        }
      ],
      "stateMutability": "view",
      "type": "function"
    },
    {
      "inputs": [],
      "name": "totalRepaid",
      "outputs": [
        {
          "internalType": "uint256",
          "name": "",
          "type": "uint256"
        }
      ],
      "stateMutability": "view",
      "type": "function"
    },
    {
      "inputs": [
        {
          "internalType": "address",
          "name": "newOwner",
          "type": "address"
        }
      ],
      "name": "transferOwnership",
      "outputs": [],
      "stateMutability": "nonpayable",
      "type": "function"
    },
    {
      "inputs": [],
      "name": "verifier",
      "outputs": [
        {
          "internalType": "contract UniversalVerifier",
          "name": "",
          "type": "address"
        }
      ],
      "stateMutability": "view",
      "type": "function"
    },
    {
      "inputs": [
        {
          "internalType": "uint256",
          "name": "amount",
          "type": "uint256"
        }
      ],
      "name": "withdraw",
      "outputs": [],
      "stateMutability": "nonpayable",
      "type": "function"
    },
    {
      "stateMutability": "payable",
      "type": "receive"
    }
  ],
  "bytecode": "0x608060405234801561000f575f5ffd5b506040516115f53803806115f583398101604081905261002e9161011c565b338061005357604051631e4fbdf760e01b81525f600482015260240160405180910390fd5b61005c816100b2565b5060017f9b779b17422d0df92223018b32b4d1fa46e071723d6817e2486d003becc55f0055600180546001600160a01b039384166001600160a01b0319918216179091556002805492909316911617905561014d565b5f80546001600160a01b038381166001600160a01b0319831681178455604051919092169283917f8be0079c531659141344cd1fd0a4f28419497f9722a3daafe3b4186f6b6457e09190a35050565b80516001600160a01b0381168114610117575f5ffd5b919050565b5f5f6040838503121561012d575f5ffd5b61013683610101565b915061014460208401610101565b90509250929050565b61149b8061015a5f395ff3fe608060405260043610610164575f3560e01c80638da5cb5b116100cd578063c7959d0411610087578063f2fde38b11610062578063f2fde38b14610404578063fc7e286d14610423578063fe6bcd7c1461046a578063ff50abdc14610489575f5ffd5b8063c7959d04146103d3578063d0e30db0146103e8578063d819bfef146103f0575f5ffd5b80638da5cb5b1461031c578063931da15214610338578063a72dad0514610377578063c24dbebd1461038c578063c52164c6146103a1578063c5ebeaec146103c0575f5ffd5b806341910f901161011e57806341910f901461022b5780634c19386c14610240578063715018a61461025557806373b4086b146102695780637beef23a146102e95780637eb7113114610308575f5ffd5b8063083d25201461016f5780632b7ac3f3146101975780632e1a7d4d146101ce5780632f865568146101ef5780633574d4c41461020e578063402d888314610223575f5ffd5b3661016b57005b5f5ffd5b34801561017a575f5ffd5b5061018460095481565b6040519081526020015b60405180910390f35b3480156101a2575f5ffd5b506002546101b6906001600160a01b031681565b6040516001600160a01b03909116815260200161018e565b3480156101d9575f5ffd5b506101ed6101e8366004611303565b61049e565b005b3480156101fa575f5ffd5b506101ed610209366004611335565b61063f565b348015610219575f5ffd5b506101846101f481565b6101ed6108bb565b348015610236575f5ffd5b506101846103e881565b34801561024b575f5ffd5b5061018460045481565b348015610260575f5ffd5b506101ed610aa4565b348015610274575f5ffd5b506102ba610283366004611335565b60066020525f9081526040902080546001820154600283015460038401546004850154600590950154939492939192909160ff1686565b6040805196875260208701959095529385019290925260608401526080830152151560a082015260c00161018e565b3480156102f4575f5ffd5b50610184610303366004611335565b610ab5565b348015610313575f5ffd5b50610184610ac5565b348015610327575f5ffd5b505f546001600160a01b03166101b6565b348015610343575f5ffd5b50610357610352366004611355565b610af5565b60408051948552602085019390935291830152606082015260800161018e565b348015610382575f5ffd5b5061018460085481565b348015610397575f5ffd5b506101846109c481565b3480156103ac575f5ffd5b506001546101b6906001600160a01b031681565b6101ed6103ce366004611303565b610c02565b3480156103de575f5ffd5b5061018460075481565b6101ed610fd6565b3480156103fb575f5ffd5b5061018460c881565b34801561040f575f5ffd5b506101ed61041e366004611335565b6110c0565b34801561042e575f5ffd5b5061045561043d366004611335565b60056020525f90815260409020805460019091015482565b6040805192835260208301919091520161018e565b348015610475575f5ffd5b50610184610484366004611335565b6110fa565b348015610494575f5ffd5b5061018460035481565b6104a661118c565b335f908152600560205260409020548111156105005760405162461bcd60e51b8152602060048201526014602482015273125b9cdd59999a58da595b9d0819195c1bdcda5d60621b60448201526064015b60405180910390fd5b804710156105505760405162461bcd60e51b815260206004820152601b60248201527f496e73756666696369656e7420706f6f6c206c6971756964697479000000000060448201526064016104f7565b335f908152600560205260408120805483929061056e908490611391565b925050819055508060035f8282546105869190611391565b90915550506040515f90339083908381818185875af1925050503d805f81146105ca576040519150601f19603f3d011682016040523d82523d5f602084013e6105cf565b606091505b50509050806105f05760405162461bcd60e51b81526004016104f7906113a4565b60405182815233907f7084f5476618d8e60b11ef0d7d3f06914655adb8793e28ff7f018d4c76d505d59060200160405180910390a25061063c60015f5160206114465f395f51905f5255565b50565b61064761118c565b6001600160a01b0381165f908152600660205260409020600581015460ff166106a35760405162461bcd60e51b815260206004820152600e60248201526d27379030b1ba34bb32903637b0b760911b60448201526064016104f7565b60646106ae836110fa565b106106ed5760405162461bcd60e51b815260206004820152600f60248201526e4c6f616e206973206865616c74687960881b60448201526064016104f7565b60018101545f6106fc846111a7565b835461070891906113cd565b60058401805460ff1916905583546004805492935090915f9061072c908490611391565b909155505060098054905f610740836113e0565b909155505f90506127106107566101f4826113cd565b61076090856113f8565b61076a919061140f565b9050828111156107775750815b6040515f90339083908381818185875af1925050503d805f81146107b6576040519150601f19603f3d011682016040523d82523d5f602084013e6107bb565b606091505b50509050806107dc5760405162461bcd60e51b81526004016104f7906113a4565b8184111561085a575f6001600160a01b0387166107f98487611391565b6040515f81818185875af1925050503d805f8114610832576040519150601f19603f3d011682016040523d82523d5f602084013e610837565b606091505b50509050806108585760405162461bcd60e51b81526004016104f7906113a4565b505b604080518581526020810185905233916001600160a01b038916917f1f0c6615429d1cdae0dfa233abf91d3b31cdbdd82c8081389832a61e1072f1ea910160405180910390a3505050505061063c60015f5160206114465f395f51905f5255565b6108c361118c565b335f908152600660205260409020600581015460ff166109165760405162461bcd60e51b815260206004820152600e60248201526d27379030b1ba34bb32903637b0b760911b60448201526064016104f7565b5f610920336111a7565b90505f81835f015461093291906113cd565b90508034101561098e5760405162461bcd60e51b815260206004820152602160248201527f4d7573742072657061792066756c6c20616d6f756e74202b20696e74657265736044820152601d60fa1b60648201526084016104f7565b600183015460058401805460ff191690558354600480545f906109b2908490611391565b909155505060088054905f6109c6836113e0565b909155505f90506109d78334611391565b6109e190836113cd565b6040519091505f90339083908381818185875af1925050503d805f8114610a23576040519150601f19603f3d011682016040523d82523d5f602084013e610a28565b606091505b5050905080610a495760405162461bcd60e51b81526004016104f7906113a4565b8554604080519182526020820187905233917fc7ce0a35f17b490de2a317e7fecb2cae86b1abffb03800b2f492823521382698910160405180910390a2505050505050610aa260015f5160206114465f395f51905f5255565b565b610aac611209565b610aa25f611235565b5f610abf826111a7565b92915050565b5f6003545f03610ad457505f90565b600354600454610ae6906127106113f8565b610af0919061140f565b905090565b600154604051630d47875d60e41b81526001600160a01b0384811660048301525f92839283928392169063d47875d090602401602060405180830381865afa158015610b43573d5f5f3e3d5ffd5b505050506040513d601f19601f82011682018060405250810190610b67919061142e565b6002546040516306ec298560e01b8152600481018390529193506001600160a01b0316906306ec298590602401602060405180830381865afa158015610baf573d5f5f3e3d5ffd5b505050506040513d601f19601f82011682018060405250810190610bd3919061142e565b9050612710610be282876113f8565b610bec919061140f565b9350610bf782611284565b925092959194509250565b610c0a61118c565b335f9081526006602052604090206005015460ff1615610c775760405162461bcd60e51b815260206004820152602260248201527f4578697374696e67206c6f616e206d75737420626520726570616964206669726044820152611cdd60f21b60648201526084016104f7565b5f8111610cbe5760405162461bcd60e51b81526020600482015260156024820152744d75737420626f72726f7720736f6d657468696e6760581b60448201526064016104f7565b80471015610d0e5760405162461bcd60e51b815260206004820152601b60248201527f496e73756666696369656e7420706f6f6c206c6971756964697479000000000060448201526064016104f7565b600154604051630d47875d60e41b81523360048201525f916001600160a01b03169063d47875d090602401602060405180830381865afa158015610d54573d5f5f3e3d5ffd5b505050506040513d601f19601f82011682018060405250810190610d78919061142e565b6002546040516306ec298560e01b8152600481018390529192505f916001600160a01b03909116906306ec298590602401602060405180830381865afa158015610dc4573d5f5f3e3d5ffd5b505050506040513d601f19601f82011682018060405250810190610de8919061142e565b90505f612710610df883866113f8565b610e02919061140f565b905080341015610e545760405162461bcd60e51b815260206004820152601760248201527f496e73756666696369656e7420636f6c6c61746572616c00000000000000000060448201526064016104f7565b5f610e5e84611284565b6040805160c0810182528781523460208083019182528284018581524260608501908152608085018a8152600160a08701818152335f90815260069096529785209651875594519486019490945590516002850155516003840155905160048084019190915592516005909201805460ff19169215159290921790915581549293508792610eed9084906113cd565b909155505060078054905f610f01836113e0565b90915550506040515f90339087908381818185875af1925050503d805f8114610f45576040519150601f19603f3d011682016040523d82523d5f602084013e610f4a565b606091505b5050905080610f6b5760405162461bcd60e51b81526004016104f7906113a4565b60408051878152346020820152908101839052606081018590526080810186905233907ff1485b563b78e02612d20ef9323eb1cb83f8e1eeb754a120f02f60cc1ff380b49060a00160405180910390a2505050505061063c60015f5160206114465f395f51905f5255565b610fde61118c565b5f34116110265760405162461bcd60e51b81526020600482015260166024820152754d757374206465706f73697420736f6d657468696e6760501b60448201526064016104f7565b335f90815260056020526040812080543492906110449084906113cd565b9091555050335f90815260056020526040812042600190910155600380543492906110709084906113cd565b909155505060405134815233907f2da466a7b24304f47e87fa2e1e5a81b9831ce54fec19055ce277ca2f39ba42c49060200160405180910390a2610aa260015f5160206114465f395f51905f5255565b6110c8611209565b6001600160a01b0381166110f157604051631e4fbdf760e01b81525f60048201526024016104f7565b61063c81611235565b6001600160a01b0381165f908152600660205260408120600581015460ff1661112657505f1992915050565b5f611130846111a7565b825461113c91906113cd565b9050805f0361114f57505f199392505050565b600482015461115e90826113f8565b600183015461116f906127106113f8565b61117a9060646113f8565b611184919061140f565b949350505050565b6111946112d4565b60025f5160206114465f395f51905f5255565b6001600160a01b0381165f908152600660205260408120600581015460ff166111d257505f92915050565b5f8160030154426111e39190611391565b905064496cebb800818360020154845f01546111ff91906113f8565b61117a91906113f8565b5f546001600160a01b03163314610aa25760405163118cdaa760e01b81523360048201526024016104f7565b5f80546001600160a01b038381166001600160a01b0319831681178455604051919092169283917f8be0079c531659141344cd1fd0a4f28419497f9722a3daafe3b4186f6b6457e09190a35050565b5f6103848210611296575060c8919050565b6102ee82106112a857506101f4919050565b6101f482106112ba57506103e8919050565b60c882106112cb57506105dc919050565b506109c4919050565b5f5160206114465f395f51905f5254600203610aa257604051633ee5aeb560e01b815260040160405180910390fd5b5f60208284031215611313575f5ffd5b5035919050565b80356001600160a01b0381168114611330575f5ffd5b919050565b5f60208284031215611345575f5ffd5b61134e8261131a565b9392505050565b5f5f60408385031215611366575f5ffd5b61136f8361131a565b946020939093013593505050565b634e487b7160e01b5f52601160045260245ffd5b81810381811115610abf57610abf61137d565b6020808252600f908201526e151c985b9cd9995c8819985a5b1959608a1b604082015260600190565b80820180821115610abf57610abf61137d565b5f600182016113f1576113f161137d565b5060010190565b8082028115828204841417610abf57610abf61137d565b5f8261142957634e487b7160e01b5f52601260045260245ffd5b500490565b5f6020828403121561143e575f5ffd5b505191905056fe9b779b17422d0df92223018b32b4d1fa46e071723d6817e2486d003becc55f00a2646970667358221220204b9a3507d2694c15e35da089bcce10fa735d6a4c6776e4d70f8deb9cc33e9b64736f6c634300081c0033",
  "linkReferences": {},
  "deployedLinkReferences": {}
}