{
  "_format": "hh-sol-artifact-1",
  "contractName": "MockLendingSource",
  "sourceName": "contracts/MockLendingSource.sol",
  "abi": [
    {
      "anonymous": false,
      "inputs": [
        {
          "indexed": true,
          "internalType": "uint256",
          "name": "loanId",
          "type": "uint256"
        },
        {
          "indexed": true,
          "internalType": "address",
          "name": "borrower",
          "type": "address"
        },
        {
          "indexed": false,
          "internalType": "uint256",
          "name": "amount",
          "type": "uint256"
        },
        {
          "indexed": false,
          "internalType": "uint256",
          "name": "timestamp",
          "type": "uint256"
        }
      ],
      "name": "LoanCreated",
      "type": "event"
    },
    {
      "anonymous": false,
      "inputs": [
        {
          "indexed": true,
          "internalType": "uint256",
          "name": "loanId",
          "type": "uint256"
        },
        {
          "indexed": true,
          "internalType": "address",
          "name": "borrower",
          "type": "address"
        },
        {
          "indexed": false,
          "internalType": "uint256",
          "name": "amount",
          "type": "uint256"
        },
        {
          "indexed": false,
          "internalType": "uint256",
          "name": "timestamp",
          "type": "uint256"
        }
      ],
      "name": "LoanDefaulted",
      "type": "event"
    },
    {
      "anonymous": false,
      "inputs": [
        {
          "indexed": true,
          "internalType": "uint256",
          "name": "loanId",
          "type": "uint256"
        },
        {
          "indexed": true,
          "internalType": "address",
          "name": "borrower",
          "type": "address"
        },
        {
          "indexed": false,
          "internalType": "uint256",
          "name": "amount",
          "type": "uint256"
        },
        {
          "indexed": false,
          "internalType": "uint256",
          "name": "timestamp",
          "type": "uint256"
        }
      ],
      "name": "LoanRepaid",
      "type": "event"
    },
    {
      "inputs": [
        {
          "internalType": "uint256",
          "name": "amount",
          "type": "uint256"
        }
      ],
      "name": "createLoan",
      "outputs": [],
      "stateMutability": "nonpayable",
      "type": "function"
    },
    {
      "inputs": [
        {
          "internalType": "uint256",
          "name": "loanId",
          "type": "uint256"
        }
      ],
      "name": "defaultLoan",
      "outputs": [],
      "stateMutability": "nonpayable",
      "type": "function"
    },
    {
      "inputs": [
        {
          "internalType": "uint256",
          "name": "",
          "type": "uint256"
        }
      ],
      "name": "mockLoans",
      "outputs": [
        {
          "internalType": "address",
          "name": "borrower",
          "type": "address"
        },
        {
          "internalType": "uint256",
          "name": "amount",
          "type": "uint256"
        },
        {
          "internalType": "uint256",
          "name": "createdAt",
          "type": "uint256"
        },
        {
          "internalType": "bool",
          "name": "repaid",
          "type": "bool"
        },
        {
          "internalType": "bool",
          "name": "defaulted",
          "type": "bool"
        }
      ],
      "stateMutability": "view",
      "type": "function"
    },
    {
      "inputs": [],
      "name": "nextLoanId",
      "outputs": [
        {
          "internalType": "uint256",
          "name": "",
          "type": "uint256"
        }
      ],
      "stateMutability": "view",
      "type": "function"
    },
    {
      "inputs": [
        {
          "internalType": "uint256",
          "name": "loanId",
          "type": "uint256"
        }
      ],
      "name": "repayLoan",
      "outputs": [],
      "stateMutability": "nonpayable",
      "type": "function"
    }
  ],
  "bytecode": "0x6080604052348015600e575f5ffd5b5061045a8061001c5f395ff3fe608060405234801561000f575f5ffd5b5060043610610055575f3560e01c80633102c98f1461005957806367bf61c4146100de57806387c51459146100f35780639a4e8ecf1461010a578063ab7b1c891461011d575b5f5ffd5b6100a36100673660046103e9565b5f6020819052908152604090208054600182015460028301546003909301546001600160a01b0390921692909160ff8082169161010090041685565b604080516001600160a01b039096168652602086019490945292840191909152151560608301521515608082015260a0015b60405180910390f35b6100f16100ec3660046103e9565b610130565b005b6100fc60015481565b6040519081526020016100d5565b6100f16101183660046103e9565b610207565b6100f161012b3660046103e9565b6102e3565b5f818152602081905260409020600381015460ff1615801561015c57506003810154610100900460ff16155b6101a45760405162461bcd60e51b8152602060048201526014602482015273131bd85b88185b1c9958591e481cd95d1d1b195960621b60448201526064015b60405180910390fd5b60038101805461ff00191661010017905580546001820154604080519182524260208301526001600160a01b039092169184917f879ddb97af12a69acc156dd1aed83d9413a91026dd5230c933d5a3d5e0488c1f91015b60405180910390a35050565b600180545f918261021783610400565b909155506040805160a081018252338082526020808301878152428486018181525f60608701818152608088018281528a835282875291899020975188546001600160a01b0319166001600160a01b039091161788559351600188015590516002870155915160039095018054925161ffff1990931695151561ff00191695909517610100921515929092029190911790935583518781529081019290925292935083917f3373919ad665425d2cddb4072830e5935b6ee308440fa99b23383648da473bc091016101fb565b5f81815260208190526040902080546001600160a01b031633146103395760405162461bcd60e51b815260206004820152600d60248201526c2737ba103cb7bab9103637b0b760991b604482015260640161019b565b600381015460ff1615801561035857506003810154610100900460ff16155b61039b5760405162461bcd60e51b8152602060048201526014602482015273131bd85b88185b1c9958591e481cd95d1d1b195960621b604482015260640161019b565b60038101805460ff1916600190811790915581015460408051918252426020830152339184917f553c9087bff5b534e499a66dac3fa9db2962cd252ea01165239755836ae5345e91016101fb565b5f602082840312156103f9575f5ffd5b5035919050565b5f6001820161041d57634e487b7160e01b5f52601160045260245ffd5b506001019056fea2646970667358221220cd1dd17d09b0863b33bba180e480c4be7549e99db2225c5ed7aae35cee1e530b64736f6c634300081c0033",
  "linkReferences": {},
  "deployedLinkReferences": {}
}