{"contracts/UniversalVerifier.sol":{"UniversalVerifier":{"abi":[{"inputs":[{"internalType":"address","name":"_reputation","type":"address"}],"stateMutability":"nonpayable","type":"constructor"},{"inputs":[{"internalType":"address","name":"owner","type":"address"}],"name":"OwnableInvalidOwner","type":"error"},{"inputs":[{"internalType":"address","name":"account","type":"address"}],"name":"OwnableUnauthorizedAccount","type":"error"},{"anonymous":false,"inputs":[{"indexed":true,"internalType":"address","name":"user","type":"address"},{"indexed":true,"internalType":"bytes32","name":"proofHash","type":"bytes32"},{"indexed":false,"internalType":"bool","name":"isRepayment","type":"bool"},{"indexed":false,"internalType":"uint256","name":"loanAmount","type":"uint256"},{"indexed":false,"internalType":"string","name":"sourceChain","type":"string"}],"name":"CrossChainVerified","type":"event"},{"anonymous":false,"inputs":[{"indexed":true,"internalType":"address","name":"user","type":"address"},{"indexed":false,"internalType":"bool","name":"isRepayment","type":"bool"},{"indexed":false,"internalType":"uint256","name":"loanAmount","type":"uint256"},{"indexed":false,"internalType":"string","name":"reason","type":"string"}],"name":"ManualVerification","type":"event"},{"anonymous":false,"inputs":[{"indexed":true,"internalType":"address","name":"previousOwner","type":"address"},{"indexed":true,"internalType":"address","name":"newOwner","type":"address"}],"name":"OwnershipTransferred","type":"event"},{"inputs":[],"name":"BASE_SCORE","outputs":[{"internalType":"uint256","name":"","type":"uint256"}],"stateMutability":"view","type":"function"},{"inputs":[],"name":"DEFAULT_PENALTY","outputs":[{"internalType":"uint256","name":"","type":"uint256"}],"stateMutability":"view","type":"function"},{"inputs":[],"name":"MAX_SCORE","outputs":[{"internalType":"uint256","name":"","type":"uint256"}],"stateMutability":"view","type":"function"},{"inputs":[],"name":"MIN_SCORE","outputs":[{"internalType":"uint256","name":"","type":"uint256"}],"stateMutability":"view","type":"function"},{"inputs":[],"name":"REPAYMENT_BOOST","outputs":[{"internalType":"uint256","name":"","type":"uint256"}],"stateMutability":"view","type":"function"},{"inputs":[{"internalType":"address","name":"user","type":"address"},{"internalType":"bool[]","name":"isRepayments","type":"bool[]"},{"internalType":"uint256[]","name":"amounts","type":"uint256[]"},{"internalType":"string[]","name":"reasons","type":"string[]"}],"name":"batchRegisterEvents","outputs":[],"stateMutability":"nonpayable","type":"function"},{"inputs":[{"internalType":"uint256","name":"score","type":"uint256"}],"name":"getLTVForScore","outputs":[{"internalType":"uint256","name":"ltvBps","type":"uint256"}],"stateMutability":"pure","type":"function"},{"inputs":[],"name":"owner","outputs":[{"internalType":"address","name":"","type":"address"}],"stateMutability":"view","type":"function"},{"inputs":[{"internalType":"bytes32","name":"","type":"bytes32"}],"name":"processedProofs","outputs":[{"internalType":"bool","name":"","type":"bool"}],"stateMutability":"view","type":"function"},{"inputs":[{"internalType":"address","name":"user","type":"address"},{"internalType":"bool","name":"isRepayment","type":"bool"},{"internalType":"uint256","name":"loanAmount","type":"uint256"},{"internalType":"string","name":"reason","type":"string"}],"name":"registerLoanEvent","outputs":[],"stateMutability":"nonpayable","type":"function"},{"inputs":[],"name":"renounceOwnership","outputs":[],"stateMutability":"nonpayable","type":"function"},{"inputs":[],"name":"reputation","outputs":[{"internalType":"contract CreditReputation","name":"","type":"address"}],"stateMutability":"view","type":"function"},{"inputs":[{"internalType":"address","name":"newOwner","type":"address"}],"name":"transferOwnership","outputs":[],"stateMutability":"nonpayable","type":"function"},{"inputs":[{"internalType":"address","name":"user","type":"address"},{"internalType":"bytes","name":"proof","type":"bytes"},{"internalType":"bool","name":"isRepayment","type":"bool"},{"internalType":"uint256","name":"loanAmount","type":"uint256"},{"internalType":"string","name":"sourceChain","type":"string"}],"name":"verifyCrossChainEvent","outputs":[],"stateMutability":"nonpayable","type":"function"}],"evm":{"bytecode":{"linkReferences":{},"object":"608060405234801561000f575f5ffd5b5060405161136038038061136083398101604081905261002e916100d1565b338061005357604051631e4fbdf760e01b81525f600482015260240160405180910390fd5b61005c81610082565b50600180546001600160a01b0319166001600160a01b03929092169190911790556100fe565b5f80546001600160a01b038381166001600160a01b0319831681178455604051919092169283917f8be0079c531659141344cd1fd0a4f28419497f9722a3daafe3b4186f6b6457e09190a35050565b5f602082840312156100e1575f5ffd5b81516001600160a01b03811681146100f7575f5ffd5b9392505050565b6112558061010b5f395ff3fe608060405234801561000f575f5ffd5b50600436106100e5575f3560e01c80638da5cb5b11610088578063c483d55511610063578063c483d555146101ab578063c52164c6146101be578063d8b39203146101d1578063f2fde38b146101e4575f5ffd5b80638da5cb5b14610177578063a6396e4d1461019b578063bf15e017146101a3575f5ffd5b8063715018a6116100c3578063715018a61461011f5780637effe56814610129578063839139c6146101325780638d20661f14610164575f5ffd5b806306ec2985146100e957806327ff62231461010f57806340b8927014610118575b5f5ffd5b6100fc6100f7366004610d90565b6101f7565b6040519081526020015b60405180910390f35b6100fc6103e881565b6100fc5f81565b610127610248565b005b6100fc61012c81565b610154610140366004610d90565b60026020525f908152604090205460ff1681565b6040519015158152602001610106565b610127610172366004610e14565b61025b565b5f546001600160a01b03165b6040516001600160a01b039091168152602001610106565b6100fc603281565b6100fc606481565b6101276101b9366004610ec1565b6104bb565b600154610183906001600160a01b031681565b6101276101df366004610f70565b610850565b6101276101f2366004610ff8565b610bbf565b5f610384821061020a5750611388919050565b6102ee821061021c5750611d4c919050565b6101f4821061022e5750612710919050565b60c8821061023f5750612ee0919050565b50613a98919050565b610250610bfc565b6102595f610c28565b565b610263610bfc565b600154604051631fca7b9360e21b81526001600160a01b03878116600483015290911690637f29ee4c90602401602060405180830381865afa1580156102ab573d5f5f3e3d5ffd5b505050506040513d601f19601f820116820180604052508101906102cf9190611011565b61033657600154604051631287995760e31b81526001600160a01b03878116600483015261012c60248301529091169063943ccab8906044015f604051808303815f87803b15801561031f575f5ffd5b505af1158015610331573d5f5f3e3d5ffd5b505050505b600154604051630d47875d60e41b81526001600160a01b0387811660048301525f92169063d47875d090602401602060405180830381865afa15801561037e573d5f5f3e3d5ffd5b505050506040513d601f19601f820116820180604052508101906103a2919061102c565b90505f6103b0828787610c77565b6040516bffffffffffffffffffffffff1960608a901b16602082015287151560f81b6034820152603581018790524260558201529091505f9060750160408051601f1981840301815290829052805160209091012060015463933a868160e01b83529092506001600160a01b03169063933a86819061043d908b90869086908d908c908c9060040161106b565b5f604051808303815f87803b158015610454575f5ffd5b505af1158015610466573d5f5f3e3d5ffd5b50505050876001600160a01b03167f1d07769b2c3a548c93e0fadf2064ae863a73148a609605169437f3ebd7f28c77888888886040516104a994939291906110ac565b60405180910390a25050505050505050565b6104c3610bfc565b84831461050f5760405162461bcd60e51b8152602060048201526015602482015274082e4e4c2f240d8cadccee8d040dad2e6dac2e8c6d605b1b60448201526064015b60405180910390fd5b8281146105565760405162461bcd60e51b8152602060048201526015602482015274082e4e4c2f240d8cadccee8d040dad2e6dac2e8c6d605b1b6044820152606401610506565b600154604051631fca7b9360e21b81526001600160a01b03898116600483015290911690637f29ee4c90602401602060405180830381865afa15801561059e573d5f5f3e3d5ffd5b505050506040513d601f19601f820116820180604052508101906105c29190611011565b61062957600154604051631287995760e31b81526001600160a01b03898116600483015261012c60248301529091169063943ccab8906044015f604051808303815f87803b158015610612575f5ffd5b505af1158015610624573d5f5f3e3d5ffd5b505050505b5f5b8581101561084657600154604051630d47875d60e41b81526001600160a01b038a811660048301525f92169063d47875d090602401602060405180830381865afa15801561067b573d5f5f3e3d5ffd5b505050506040513d601f19601f8201168201806040525081019061069f919061102c565b90505f6106eb828a8a868181106106b8576106b86110d7565b90506020020160208101906106cd91906110eb565b8989878181106106df576106df6110d7565b90506020020135610c77565b90505f8a8a8a86818110610701576107016110d7565b905060200201602081019061071691906110eb565b898987818110610728576107286110d7565b60405160609590951b6bffffffffffffffffffffffff191660208087019190915293151560f81b603486015290920201356035830152504260558201526075810185905260950160408051601f1981840301815291905280516020909101206001549091506001600160a01b031663933a86818c84848e8e8a8181106107b0576107b06110d7565b90506020020160208101906107c591906110eb565b8b8b8b8181106107d7576107d76110d7565b90506020028101906107e99190611106565b6040518763ffffffff1660e01b815260040161080a9695949392919061106b565b5f604051808303815f87803b158015610821575f5ffd5b505af1158015610833573d5f5f3e3d5ffd5b50506001909501945061062b9350505050565b5050505050505050565b5f8686604051610861929190611149565b60408051918290039091205f8181526002602052919091205490915060ff16156108cd5760405162461bcd60e51b815260206004820152601760248201527f50726f6f6620616c72656164792070726f6365737365640000000000000000006044820152606401610506565b5f6108d88888610d1a565b9050806109275760405162461bcd60e51b815260206004820152601760248201527f55534320766572696669636174696f6e206661696c65640000000000000000006044820152606401610506565b5f8281526002602052604090819020805460ff19166001908117909155549051631fca7b9360e21b81526001600160a01b038b8116600483015290911690637f29ee4c90602401602060405180830381865afa158015610989573d5f5f3e3d5ffd5b505050506040513d601f19601f820116820180604052508101906109ad9190611011565b610a1457600154604051631287995760e31b81526001600160a01b038b8116600483015261012c60248301529091169063943ccab8906044015f604051808303815f87803b1580156109fd575f5ffd5b505af1158015610a0f573d5f5f3e3d5ffd5b505050505b600154604051630d47875d60e41b81526001600160a01b038b811660048301525f92169063d47875d090602401602060405180830381865afa158015610a5c573d5f5f3e3d5ffd5b505050506040513d601f19601f82011682018060405250810190610a80919061102c565b90505f610a8e828989610c77565b6001549091506001600160a01b031663933a86818c83878c80610ae6576040518060400160405280601a81526020017f43726f73732d636861696e206c6f616e2064656661756c746564000000000000815250610b1d565b6040518060400160405280601781526020017f43726f73732d636861696e206c6f616e207265706169640000000000000000008152505b6040518663ffffffff1660e01b8152600401610b3d959493929190611158565b5f604051808303815f87803b158015610b54575f5ffd5b505af1158015610b66573d5f5f3e3d5ffd5b50505050838b6001600160a01b03167fb988c718decaeeb26618b2c1e7ae4b5638532a54fe6b7f048fb30102a083740e8a8a8a8a604051610baa94939291906110ac565b60405180910390a35050505050505050505050565b610bc7610bfc565b6001600160a01b038116610bf057604051631e4fbdf760e01b81525f6004820152602401610506565b610bf981610c28565b50565b5f546001600160a01b031633146102595760405163118cdaa760e01b8152336004820152602401610506565b5f80546001600160a01b038381166001600160a01b0319831681178455604051919092169283917f8be0079c531659141344cd1fd0a4f28419497f9722a3daafe3b4186f6b6457e09190a35050565b5f6001678ac7230489e80000831115610c9257506003610ca6565b670de0b6b3a7640000831115610ca6575060025b8315610ce4575f610cb88260326111c7565b90505f610cc582886111de565b90506103e88111610cd65780610cda565b6103e85b9350505050610d13565b5f610cf08260646111c7565b905085811115610d04575f92505050610d13565b610d0e81876111f1565b925050505b9392505050565b60405163473b057f60e11b81525f90610fd290638e760afe90610d439086908690600401611204565b602060405180830381865afa925050508015610d7c575060408051601f3d908101601f19168201909252610d7991810190611011565b60015b610d8757505f610d8a565b90505b92915050565b5f60208284031215610da0575f5ffd5b5035919050565b80356001600160a01b0381168114610dbd575f5ffd5b919050565b8015158114610bf9575f5ffd5b5f5f83601f840112610ddf575f5ffd5b50813567ffffffffffffffff811115610df6575f5ffd5b602083019150836020828501011115610e0d575f5ffd5b9250929050565b5f5f5f5f5f60808688031215610e28575f5ffd5b610e3186610da7565b94506020860135610e4181610dc2565b935060408601359250606086013567ffffffffffffffff811115610e63575f5ffd5b610e6f88828901610dcf565b969995985093965092949392505050565b5f5f83601f840112610e90575f5ffd5b50813567ffffffffffffffff811115610ea7575f5ffd5b6020830191508360208260051b8501011115610e0d575f5ffd5b5f5f5f5f5f5f5f6080888a031215610ed7575f5ffd5b610ee088610da7565b9650602088013567ffffffffffffffff811115610efb575f5ffd5b610f078a828b01610e80565b909750955050604088013567ffffffffffffffff811115610f26575f5ffd5b610f328a828b01610e80565b909550935050606088013567ffffffffffffffff811115610f51575f5ffd5b610f5d8a828b01610e80565b989b979a50959850939692959293505050565b5f5f5f5f5f5f5f60a0888a031215610f86575f5ffd5b610f8f88610da7565b9650602088013567ffffffffffffffff811115610faa575f5ffd5b610fb68a828b01610dcf565b9097509550506040880135610fca81610dc2565b935060608801359250608088013567ffffffffffffffff811115610fec575f5ffd5b610f5d8a828b01610dcf565b5f60208284031215611008575f5ffd5b610d1382610da7565b5f60208284031215611021575f5ffd5b8151610d1381610dc2565b5f6020828403121561103c575f5ffd5b5051919050565b81835281816020850137505f828201602090810191909152601f909101601f19169091010190565b60018060a01b0387168152856020820152846040820152831515606082015260a060808201525f6110a060a083018486611043565b98975050505050505050565b8415158152836020820152606060408201525f6110cd606083018486611043565b9695505050505050565b634e487b7160e01b5f52603260045260245ffd5b5f602082840312156110fb575f5ffd5b8135610d1381610dc2565b5f5f8335601e1984360301811261111b575f5ffd5b83018035915067ffffffffffffffff821115611135575f5ffd5b602001915036819003821315610e0d575f5ffd5b818382375f9101908152919050565b60018060a01b0386168152846020820152836040820152821515606082015260a060808201525f82518060a0840152806020850160c085015e5f60c0828501015260c0601f19601f8301168401019150509695505050505050565b634e487b7160e01b5f52601160045260245ffd5b8082028115828204841417610d8a57610d8a6111b3565b80820180821115610d8a57610d8a6111b3565b81810381811115610d8a57610d8a6111b3565b602081525f611217602083018486611043565b94935050505056fea2646970667358221220e0629636e6187c300e7a23a62e024cfbb6f98c0f374cba50221cad131405ea8864736f6c634300081c0033","opcodes":"PUSH1 0x80 PUSH1 0x40 MSTORE CALLVALUE DUP1 ISZERO PUSH2 0xF JUMPI PUSH0 PUSH0 REVERT JUMPDEST POP PUSH1 0x40 MLOAD PUSH2 0x1360 CODESIZE SUB DUP1 PUSH2 0x1360 DUP4 CODECOPY DUP2 ADD PUSH1 0x40 DUP2 SWAP1 MSTORE PUSH2 0x2E SWAP2 PUSH2 0xD1 JUMP JUMPDEST CALLER DUP1 PUSH2 0x53 JUMPI PUSH1 0x40 MLOAD PUSH4 0x1E4FBDF7 PUSH1 0xE0 SHL DUP2 MSTORE PUSH0 PUSH1 0x4 DUP3 ADD MSTORE PUSH1 0x24 ADD PUSH1 0x40 MLOAD DUP1 SWAP2 SUB SWAP1 REVERT JUMPDEST PUSH2 0x5C DUP2 PUSH2 0x82 JUMP JUMPDEST POP PUSH1 0x1 DUP1 SLOAD PUSH1 0x1 PUSH1 0x1 PUSH1 0xA0 SHL SUB NOT AND PUSH1 0x1 PUSH1 0x1 PUSH1 0xA0 SHL SUB SWAP3 SWAP1 SWAP3 AND SWAP2 SWAP1 SWAP2 OR SWAP1 SSTORE PUSH2 0xFE JUMP JUMPDEST PUSH0 DUP1 SLOAD PUSH1 0x1 PUSH1 0x1 PUSH1 0xA0 SHL SUB DUP4 DUP2 AND PUSH1 0x1 PUSH1 0x1 PUSH1 0xA0 SHL SUB NOT DUP4 AND DUP2 OR DUP5 SSTORE PUSH1 0x40 MLOAD SWAP2 SWAP1 SWAP3 AND SWAP3 DUP4 SWAP2 PUSH32 0x8BE0079C531659141344CD1FD0A4F28419497F9722A3DAAFE3B4186F6B6457E0 SWAP2 SWAP1 LOG3 POP POP JUMP JUMPDEST PUSH0 PUSH1 0x20 DUP3 DUP5 SUB SLT ISZERO PUSH2 0xE1 JUMPI PUSH0 PUSH0 REVERT JUMPDEST DUP2 MLOAD PUSH1 0x1 PUSH1 0x1 PUSH1 0xA0 SHL SUB DUP2 AND DUP2 EQ PUSH2 0xF7 JUMPI PUSH0 PUSH0 REVERT JUMPDEST SWAP4 SWAP3 POP POP POP JUMP JUMPDEST PUSH2 0x1255 DUP1 PUSH2 0x10B PUSH0 CODECOPY PUSH0 RETURN INVALID PUSH1 0x80 PUSH1 0x40 MSTORE CALLVALUE DUP1 ISZERO PUSH2 0xF JUMPI PUSH0 PUSH0 REVERT JUMPDEST POP PUSH1 0x4 CALLDATASIZE LT PUSH2 0xE5 JUMPI PUSH0 CALLDATALOAD PUSH1 0xE0 SHR DUP1 PUSH4 0x8DA5CB5B GT PUSH2 0x88 JUMPI DUP1 PUSH4 0xC483D555 GT PUSH2 0x63 JUMPI DUP1 PUSH4 0xC483D555 EQ PUSH2 0x1AB JUMPI DUP1 PUSH4 0xC52164C6 EQ PUSH2 0x1BE JUMPI DUP1 PUSH4 0xD8B39203 EQ PUSH2 0x1D1 JUMPI DUP1 PUSH4 0xF2FDE38B EQ PUSH2 0x1E4 JUMPI PUSH0 PUSH0 REVERT JUMPDEST DUP1 PUSH4 0x8DA5CB5B EQ PUSH2 0x177 JUMPI DUP1 PUSH4 0xA6396E4D EQ PUSH2 0x19B JUMPI DUP1 PUSH4 0xBF15E017 EQ PUSH2 0x1A3 JUMPI PUSH0 PUSH0 REVERT JUMPDEST DUP1 PUSH4 0x715018A6 GT PUSH2 0xC3 JUMPI DUP1 PUSH4 0x715018A6 EQ PUSH2 0x11F JUMPI DUP1 PUSH4 0x7EFFE568 EQ PUSH2 0x129 JUMPI DUP1 PUSH4 0x839139C6 EQ PUSH2 0x132 JUMPI DUP1 PUSH4 0x8D20661F EQ PUSH2 0x164 JUMPI PUSH0 PUSH0 REVERT JUMPDEST DUP1 PUSH4 0x6EC2985 EQ PUSH2 0xE9 JUMPI DUP1 PUSH4 0x27FF6223 EQ PUSH2 0x10F JUMPI DUP1 PUSH4 0x40B89270 EQ PUSH2 0x118 JUMPI JUMPDEST PUSH0 PUSH0 REVERT JUMPDEST PUSH2 0xFC PUSH2 0xF7 CALLDATASIZE PUSH1 0x4 PUSH2 0xD90 JUMP JUMPDEST PUSH2 0x1F7 JUMP JUMPDEST PUSH1 0x40 MLOAD SWAP1 DUP2 MSTORE PUSH1 0x20 ADD JUMPDEST PUSH1 0x40 MLOAD DUP1 SWAP2 SUB SWAP1 RETURN JUMPDEST PUSH2 0xFC PUSH2 0x3E8 DUP2 JUMP JUMPDEST PUSH2 0xFC PUSH0 DUP2 JUMP JUMPDEST PUSH2 0x127 PUSH2 0x248 JUMP JUMPDEST STOP JUMPDEST PUSH2 0xFC PUSH2 0x12C DUP2 JUMP JUMPDEST PUSH2 0x154 PUSH2 0x140 CALLDATASIZE PUSH1 0x4 PUSH2 0xD90 JUMP JUMPDEST PUSH1 0x2 PUSH1 0x20 MSTORE PUSH0 SWAP1 DUP2 MSTORE PUSH1 0x40 SWAP1 KECCAK256 SLOAD PUSH1 0xFF AND DUP2 JUMP JUMPDEST PUSH1 0x40 MLOAD SWAP1 ISZERO ISZERO DUP2 MSTORE PUSH1 0x20 ADD PUSH2 0x106 JUMP JUMPDEST PUSH2 0x127 PUSH2 0x172 CALLDATASIZE PUSH1 0x4 PUSH2 0xE14 JUMP JUMPDEST PUSH2 0x25B JUMP JUMPDEST PUSH0 SLOAD PUSH1 0x1 PUSH1 0x1 PUSH1 0xA0 SHL SUB AND JUMPDEST PUSH1 0x40 MLOAD PUSH1 0x1 PUSH1 0x1 PUSH1 0xA0 SHL SUB SWAP1 SWAP2 AND DUP2 MSTORE PUSH1 0x20 ADD PUSH2 0x106 JUMP JUMPDEST PUSH2 0xFC PUSH1 0x32 DUP2 JUMP JUMPDEST PUSH2 0xFC PUSH1 0x64 DUP2 JUMP JUMPDEST PUSH2 0x127 PUSH2 0x1B9 CALLDATASIZE PUSH1 0x4 PUSH2 0xEC1 JUMP JUMPDEST PUSH2 0x4BB JUMP JUMPDEST PUSH1 0x1 SLOAD PUSH2 0x183 SWAP1 PUSH1 0x1 PUSH1 0x1 PUSH1 0xA0 SHL SUB AND DUP2 JUMP JUMPDEST PUSH2 0x127 PUSH2 0x1DF CALLDATASIZE PUSH1 0x4 PUSH2 0xF70 JUMP JUMPDEST PUSH2 0x850 JUMP JUMPDEST PUSH2 0x127 PUSH2 0x1F2 CALLDATASIZE PUSH1 0x4 PUSH2 0xFF8 JUMP JUMPDEST PUSH2 0xBBF JUMP JUMPDEST PUSH0 PUSH2 0x384 DUP3 LT PUSH2 0x20A JUMPI POP PUSH2 0x1388 SWAP2 SWAP1 POP JUMP JUMPDEST PUSH2 0x2EE DUP3 LT PUSH2 0x21C JUMPI POP PUSH2 0x1D4C SWAP2 SWAP1 POP JUMP JUMPDEST PUSH2 0x1F4 DUP3 LT PUSH2 0x22E JUMPI POP PUSH2 0x2710 SWAP2 SWAP1 POP JUMP JUMPDEST PUSH1 0xC8 DUP3 LT PUSH2 0x23F JUMPI POP PUSH2 0x2EE0 SWAP2 SWAP1 POP JUMP JUMPDEST POP PUSH2 0x3A98 SWAP2 SWAP1 POP JUMP JUMPDEST PUSH2 0x250 PUSH2 0xBFC JUMP JUMPDEST PUSH2 0x259 PUSH0 PUSH2 0xC28 JUMP JUMPDEST JUMP JUMPDEST PUSH2 0x263 PUSH2 0xBFC JUMP JUMPDEST PUSH1 0x1 SLOAD PUSH1 0x40 MLOAD PUSH4 0x1FCA7B93 PUSH1 0xE2 SHL DUP2 MSTORE PUSH1 0x1 PUSH1 0x1 PUSH1 0xA0 SHL SUB DUP8 DUP2 AND PUSH1 0x4 DUP4 ADD MSTORE SWAP1 SWAP2 AND SWAP1 PUSH4 0x7F29EE4C SWAP1 PUSH1 0x24 ADD PUSH1 0x20 PUSH1 0x40 MLOAD DUP1 DUP4 SUB DUP2 DUP7 GAS STATICCALL ISZERO DUP1 ISZERO PUSH2 0x2AB JUMPI RETURNDATASIZE PUSH0 PUSH0 RETURNDATACOPY RETURNDATASIZE PUSH0 REVERT JUMPDEST POP POP POP POP PUSH1 0x40 MLOAD RETURNDATASIZE PUSH1 0x1F NOT PUSH1 0x1F DUP3 ADD AND DUP3 ADD DUP1 PUSH1 0x40 MSTORE POP DUP2 ADD SWAP1 PUSH2 0x2CF SWAP2 SWAP1 PUSH2 0x1011 JUMP JUMPDEST PUSH2 0x336 JUMPI PUSH1 0x1 SLOAD PUSH1 0x40 MLOAD PUSH4 0x12879957 PUSH1 0xE3 SHL DUP2 MSTORE PUSH1 0x1 PUSH1 0x1 PUSH1 0xA0 SHL SUB DUP8 DUP2 AND PUSH1 0x4 DUP4 ADD MSTORE PUSH2 0x12C PUSH1 0x24 DUP4 ADD MSTORE SWAP1 SWAP2 AND SWAP1 PUSH4 0x943CCAB8 SWAP1 PUSH1 0x44 ADD PUSH0 PUSH1 0x40 MLOAD DUP1 DUP4 SUB DUP2 PUSH0 DUP8 DUP1 EXTCODESIZE ISZERO DUP1 ISZERO PUSH2 0x31F JUMPI PUSH0 PUSH0 REVERT JUMPDEST POP GAS CALL ISZERO DUP1 ISZERO PUSH2 0x331 JUMPI RETURNDATASIZE PUSH0 PUSH0 RETURNDATACOPY RETURNDATASIZE PUSH0 REVERT JUMPDEST POP POP POP POP JUMPDEST PUSH1 0x1 SLOAD PUSH1 0x40 MLOAD PUSH4 0xD47875D PUSH1 0xE4 SHL DUP2 MSTORE PUSH1 0x1 PUSH1 0x1 PUSH1 0xA0 SHL SUB DUP8 DUP2 AND PUSH1 0x4 DUP4 ADD MSTORE PUSH0 SWAP3 AND SWAP1 PUSH4 0xD47875D0 SWAP1 PUSH1 0x24 ADD PUSH1 0x20 PUSH1 0x40 MLOAD DUP1 DUP4 SUB DUP2 DUP7 GAS STATICCALL ISZERO DUP1 ISZERO PUSH2 0x37E JUMPI RETURNDATASIZE PUSH0 PUSH0 RETURNDATACOPY RETURNDATASIZE PUSH0 REVERT JUMPDEST POP POP POP POP PUSH1 0x40 MLOAD RETURNDATASIZE PUSH1 0x1F NOT PUSH1 0x1F DUP3 ADD AND DUP3 ADD DUP1 PUSH1 0x40 MSTORE POP DUP2 ADD SWAP1 PUSH2 0x3A2 SWAP2 SWAP1 PUSH2 0x102C JUMP JUMPDEST SWAP1 POP PUSH0 PUSH2 0x3B0 DUP3 DUP8 DUP8 PUSH2 0xC77 JUMP JUMPDEST PUSH1 0x40 MLOAD PUSH12 0xFFFFFFFFFFFFFFFFFFFFFFFF NOT PUSH1 0x60 DUP11 SWAP1 SHL AND PUSH1 0x20 DUP3 ADD MSTORE DUP8 ISZERO ISZERO PUSH1 0xF8 SHL PUSH1 0x34 DUP3 ADD MSTORE PUSH1 0x35 DUP2 ADD DUP8 SWAP1 MSTORE TIMESTAMP PUSH1 0x55 DUP3 ADD MSTORE SWAP1 SWAP2 POP PUSH0 SWAP1 PUSH1 0x75 ADD PUSH1 0x40 DUP1 MLOAD PUSH1 0x1F NOT DUP2 DUP5 SUB ADD DUP2 MSTORE SWAP1 DUP3 SWAP1 MSTORE DUP1 MLOAD PUSH1 0x20 SWAP1 SWAP2 ADD KECCAK256 PUSH1 0x1 SLOAD PUSH4 0x933A8681 PUSH1 0xE0 SHL DUP4 MSTORE SWAP1 SWAP3 POP PUSH1 0x1 PUSH1 0x1 PUSH1 0xA0 SHL SUB AND SWAP1 PUSH4 0x933A8681 SWAP1 PUSH2 0x43D SWAP1 DUP12 SWAP1 DUP7 SWAP1 DUP7 SWAP1 DUP14 SWAP1 DUP13 SWAP1 DUP13 SWAP1 PUSH1 0x4 ADD PUSH2 0x106B JUMP JUMPDEST PUSH0 PUSH1 0x40 MLOAD DUP1 DUP4 SUB DUP2 PUSH0 DUP8 DUP1 EXTCODESIZE ISZERO DUP1 ISZERO PUSH2 0x454 JUMPI PUSH0 PUSH0 REVERT JUMPDEST POP GAS CALL ISZERO DUP1 ISZERO PUSH2 0x466 JUMPI RETURNDATASIZE PUSH0 PUSH0 RETURNDATACOPY RETURNDATASIZE PUSH0 REVERT JUMPDEST POP POP POP POP DUP8 PUSH1 0x1 PUSH1 0x1 PUSH1 0xA0 SHL SUB AND PUSH32 0x1D07769B2C3A548C93E0FADF2064AE863A73148A609605169437F3EBD7F28C77 DUP9 DUP9 DUP9 DUP9 PUSH1 0x40 MLOAD PUSH2 0x4A9 SWAP5 SWAP4 SWAP3 SWAP2 SWAP1 PUSH2 0x10AC JUMP JUMPDEST PUSH1 0x40 MLOAD DUP1 SWAP2 SUB SWAP1 LOG2 POP POP POP POP POP POP POP POP JUMP JUMPDEST PUSH2 0x4C3 PUSH2 0xBFC JUMP JUMPDEST DUP5 DUP4 EQ PUSH2 0x50F JUMPI PUSH1 0x40 MLOAD PUSH3 0x461BCD PUSH1 0xE5 SHL DUP2 MSTORE PUSH1 0x20 PUSH1 0x4 DUP3 ADD MSTORE PUSH1 0x15 PUSH1 0x24 DUP3 ADD MSTORE PUSH21 0x82E4E4C2F240D8CADCCEE8D040DAD2E6DAC2E8C6D PUSH1 0x5B SHL PUSH1 0x44 DUP3 ADD MSTORE PUSH1 0x64 ADD JUMPDEST PUSH1 0x40 MLOAD DUP1 SWAP2 SUB SWAP1 REVERT JUMPDEST DUP3 DUP2 EQ PUSH2 0x556 JUMPI PUSH1 0x40 MLOAD PUSH3 0x461BCD PUSH1 0xE5 SHL DUP2 MSTORE PUSH1 0x20 PUSH1 0x4 DUP3 ADD MSTORE PUSH1 0x15 PUSH1 0x24 DUP3 ADD MSTORE PUSH21 0x82E4E4C2F240D8CADCCEE8D040DAD2E6DAC2E8C6D PUSH1 0x5B SHL PUSH1 0x44 DUP3 ADD MSTORE PUSH1 0x64 ADD PUSH2 0x506 JUMP JUMPDEST PUSH1 0x1 SLOAD PUSH1 0x40 MLOAD PUSH4 0x1FCA7B93 PUSH1 0xE2 SHL DUP2 MSTORE PUSH1 0x1 PUSH1 0x1 PUSH1 0xA0 SHL SUB DUP10 DUP2 AND PUSH1 0x4 DUP4 ADD MSTORE SWAP1 SWAP2 AND SWAP1 PUSH4 0x7F29EE4C SWAP1 PUSH1 0x24 ADD PUSH1 0x20 PUSH1 0x40 MLOAD DUP1 DUP4 SUB DUP2 DUP7 GAS STATICCALL ISZERO DUP1 ISZERO PUSH2 0x59E JUMPI RETURNDATASIZE PUSH0 PUSH0 RETURNDATACOPY RETURNDATASIZE PUSH0 REVERT JUMPDEST POP POP POP POP PUSH1 0x40 MLOAD RETURNDATASIZE PUSH1 0x1F NOT PUSH1 0x1F DUP3 ADD AND DUP3 ADD DUP1 PUSH1 0x40 MSTORE POP DUP2 ADD SWAP1 PUSH2 0x5C2 SWAP2 SWAP1 PUSH2 0x1011 JUMP JUMPDEST PUSH2 0x629 JUMPI PUSH1 0x1 SLOAD PUSH1 0x40 MLOAD PUSH4 0x12879957 PUSH1 0xE3 SHL DUP2 MSTORE PUSH1 0x1 PUSH1 0x1 PUSH1 0xA0 SHL SUB DUP10 DUP2 AND PUSH1 0x4 DUP4 ADD MSTORE PUSH2 0x12C PUSH1 0x24 DUP4 ADD MSTORE SWAP1 SWAP2 AND SWAP1 PUSH4 0x943CCAB8 SWAP1 PUSH1 0x44 ADD PUSH0 PUSH1 0x40 MLOAD DUP1 DUP4 SUB DUP2 PUSH0 DUP8 DUP1 EXTCODESIZE ISZERO DUP1 ISZERO PUSH2 0x612 JUMPI PUSH0 PUSH0 REVERT JUMPDEST POP GAS CALL ISZERO DUP1 ISZERO PUSH2 0x624 JUMPI RETURNDATASIZE PUSH0 PUSH0 RETURNDATACOPY RETURNDATASIZE PUSH0 REVERT JUMPDEST POP POP POP POP JUMPDEST PUSH0 JUMPDEST DUP6 DUP2 LT ISZERO PUSH2 0x846 JUMPI PUSH1 0x1 SLOAD PUSH1 0x40 MLOAD PUSH4 0xD47875D PUSH1 0xE4 SHL DUP2 MSTORE PUSH1 0x1 PUSH1 0x1 PUSH1 0xA0 SHL SUB DUP11 DUP2 AND PUSH1 0x4 DUP4 ADD MSTORE PUSH0 SWAP3 AND SWAP1 PUSH4 0xD47875D0 SWAP1 PUSH1 0x24 ADD PUSH1 0x20 PUSH1 0x40 MLOAD DUP1 DUP4 SUB DUP2 DUP7 GAS STATICCALL ISZERO DUP1 ISZERO PUSH2 0x67B JUMPI RETURNDATASIZE PUSH0 PUSH0 RETURNDATACOPY RETURNDATASIZE PUSH0 REVERT JUMPDEST POP POP POP POP PUSH1 0x40 MLOAD RETURNDATASIZE PUSH1 0x1F NOT PUSH1 0x1F DUP3 ADD AND DUP3 ADD DUP1 PUSH1 0x40 MSTORE POP DUP2 ADD SWAP1 PUSH2 0x69F SWAP2 SWAP1 PUSH2 0x102C JUMP JUMPDEST SWAP1 POP PUSH0 PUSH2 0x6EB DUP3 DUP11 DUP11 DUP7 DUP2 DUP2 LT PUSH2 0x6B8 JUMPI PUSH2 0x6B8 PUSH2 0x10D7 JUMP JUMPDEST SWAP1 POP PUSH1 0x20 MUL ADD PUSH1 0x20 DUP2 ADD SWAP1 PUSH2 0x6CD SWAP2 SWAP1 PUSH2 0x10EB JUMP JUMPDEST DUP10 DUP10 DUP8 DUP2 DUP2 LT PUSH2 0x6DF JUMPI PUSH2 0x6DF PUSH2 0x10D7 JUMP JUMPDEST SWAP1 POP PUSH1 0x20 MUL ADD CALLDATALOAD PUSH2 0xC77 JUMP JUMPDEST SWAP1 POP PUSH0 DUP11 DUP11 DUP11 DUP7 DUP2 DUP2 LT PUSH2 0x701 JUMPI PUSH2 0x701 PUSH2 0x10D7 JUMP JUMPDEST SWAP1 POP PUSH1 0x20 MUL ADD PUSH1 0x20 DUP2 ADD SWAP1 PUSH2 0x716 SWAP2 SWAP1 PUSH2 0x10EB JUMP JUMPDEST DUP10 DUP10 DUP8 DUP2 DUP2 LT PUSH2 0x728 JUMPI PUSH2 0x728 PUSH2 0x10D7 JUMP JUMPDEST PUSH1 0x40 MLOAD PUSH1 0x60 SWAP6 SWAP1 SWAP6 SHL PUSH12 0xFFFFFFFFFFFFFFFFFFFFFFFF NOT AND PUSH1 0x20 DUP1 DUP8 ADD SWAP2 SWAP1 SWAP2 MSTORE SWAP4 ISZERO ISZERO PUSH1 0xF8 SHL PUSH1 0x34 DUP7 ADD MSTORE SWAP1 SWAP3 MUL ADD CALLDATALOAD PUSH1 0x35 DUP4 ADD MSTORE POP TIMESTAMP PUSH1 0x55 DUP3 ADD MSTORE PUSH1 0x75 DUP2 ADD DUP6 SWAP1 MSTORE PUSH1 0x95 ADD PUSH1 0x40 DUP1 MLOAD PUSH1 0x1F NOT DUP2 DUP5 SUB ADD DUP2 MSTORE SWAP2 SWAP1 MSTORE DUP1 MLOAD PUSH1 0x20 SWAP1 SWAP2 ADD KECCAK256 PUSH1 0x1 SLOAD SWAP1 SWAP2 POP PUSH1 0x1 PUSH1 0x1 PUSH1 0xA0 SHL SUB AND PUSH4 0x933A8681 DUP13 DUP5 DUP5 DUP15 DUP15 DUP11 DUP2 DUP2 LT PUSH2 0x7B0 JUMPI PUSH2 0x7B0 PUSH2 0x10D7 JUMP JUMPDEST SWAP1 POP PUSH1 0x20 MUL ADD PUSH1 0x20 DUP2 ADD SWAP1 PUSH2 0x7C5 SWAP2 SWAP1 PUSH2 0x10EB JUMP JUMPDEST DUP12 DUP12 DUP12 DUP2 DUP2 LT PUSH2 0x7D7 JUMPI PUSH2 0x7D7 PUSH2 0x10D7 JUMP JUMPDEST SWAP1 POP PUSH1 0x20 MUL DUP2 ADD SWAP1 PUSH2 0x7E9 SWAP2 SWAP1 PUSH2 0x1106 JUMP JUMPDEST PUSH1 0x40 MLOAD DUP8 PUSH4 0xFFFFFFFF AND PUSH1 0xE0 SHL DUP2 MSTORE PUSH1 0x4 ADD PUSH2 0x80A SWAP7 SWAP6 SWAP5 SWAP4 SWAP3 SWAP2 SWAP1 PUSH2 0x106B JUMP JUMPDEST PUSH0 PUSH1 0x40 MLOAD DUP1 DUP4 SUB DUP2 PUSH0 DUP8 DUP1 EXTCODESIZE ISZERO DUP1 ISZERO PUSH2 0x821 JUMPI PUSH0 PUSH0 REVERT JUMPDEST POP GAS CALL ISZERO DUP1 ISZERO PUSH2 0x833 JUMPI RETURNDATASIZE PUSH0 PUSH0 RETURNDATACOPY RETURNDATASIZE PUSH0 REVERT JUMPDEST POP POP PUSH1 0x1 SWAP1 SWAP6 ADD SWAP5 POP PUSH2 0x62B SWAP4 POP POP POP POP JUMP JUMPDEST POP POP POP POP POP POP POP POP JUMP JUMPDEST PUSH0 DUP7 DUP7 PUSH1 0x40 MLOAD PUSH2 0x861 SWAP3 SWAP2 SWAP1 PUSH2 0x1149 JUMP JUMPDEST PUSH1 0x40 DUP1 MLOAD SWAP2 DUP3 SWAP1 SUB SWAP1 SWAP2 KECCAK256 PUSH0 DUP2 DUP2 MSTORE PUSH1 0x2 PUSH1 0x20 MSTORE SWAP2 SWAP1 SWAP2 KECCAK256 SLOAD SWAP1 SWAP2 POP PUSH1 0xFF AND ISZERO PUSH2 0x8CD JUMPI PUSH1 0x40 MLOAD PUSH3 0x461BCD PUSH1 0xE5 SHL DUP2 MSTORE PUSH1 0x20 PUSH1 0x4 DUP3 ADD MSTORE PUSH1 0x17 PUSH1 0x24 DUP3 ADD MSTORE PUSH32 0x50726F6F6620616C72656164792070726F636573736564000000000000000000 PUSH1 0x44 DUP3 ADD MSTORE PUSH1 0x64 ADD PUSH2 0x506 JUMP JUMPDEST PUSH0 PUSH2 0x8D8 DUP9 DUP9 PUSH2 0xD1A JUMP JUMPDEST SWAP1 POP DUP1 PUSH2 0x927 JUMPI PUSH1 0x40 MLOAD PUSH3 0x461BCD PUSH1 0xE5 SHL DUP2 MSTORE PUSH1 0x20 PUSH1 0x4 DUP3 ADD MSTORE PUSH1 0x17 PUSH1 0x24 DUP3 ADD MSTORE PUSH32 0x55534320766572696669636174696F6E206661696C6564000000000000000000 PUSH1 0x44 DUP3 ADD MSTORE PUSH1 0x64 ADD PUSH2 0x506 JUMP JUMPDEST PUSH0 DUP3 DUP2 MSTORE PUSH1 0x2 PUSH1 0x20 MSTORE PUSH1 0x40 SWAP1 DUP2 SWAP1 KECCAK256 DUP1 SLOAD PUSH1 0xFF NOT AND PUSH1 0x1 SWAP1 DUP2 OR SWAP1 SWAP2 SSTORE SLOAD SWAP1 MLOAD PUSH4 0x1FCA7B93 PUSH1 0xE2 SHL DUP2 MSTORE PUSH1 0x1 PUSH1 0x1 PUSH1 0xA0 SHL SUB DUP12 DUP2 AND PUSH1 0x4 DUP4 ADD MSTORE SWAP1 SWAP2 AND SWAP1 PUSH4 0x7F29EE4C SWAP1 PUSH1 0x24 ADD PUSH1 0x20 PUSH1 0x40 MLOAD DUP1 DUP4 SUB DUP2 DUP7 GAS STATICCALL ISZERO DUP1 ISZERO PUSH2 0x989 JUMPI RETURNDATASIZE PUSH0 PUSH0 RETURNDATACOPY RETURNDATASIZE PUSH0 REVERT JUMPDEST POP POP POP POP PUSH1 0x40 MLOAD RETURNDATASIZE PUSH1 0x1F NOT PUSH1 0x1F DUP3 ADD AND DUP3 ADD DUP1 PUSH1 0x40 MSTORE POP DUP2 ADD SWAP1 PUSH2 0x9AD SWAP2 SWAP1 PUSH2 0x1011 JUMP JUMPDEST PUSH2 0xA14 JUMPI PUSH1 0x1 SLOAD PUSH1 0x40 MLOAD PUSH4 0x12879957 PUSH1 0xE3 SHL DUP2 MSTORE PUSH1 0x1 PUSH1 0x1 PUSH1 0xA0 SHL SUB DUP12 DUP2 AND PUSH1 0x4 DUP4 ADD MSTORE PUSH2 0x12C PUSH1 0x24 DUP4 ADD MSTORE SWAP1 SWAP2 AND SWAP1 PUSH4 0x943CCAB8 SWAP1 PUSH1 0x44 ADD PUSH0 PUSH1 0x40 MLOAD DUP1 DUP4 SUB DUP2 PUSH0 DUP8 DUP1 EXTCODESIZE ISZERO DUP1 ISZERO PUSH2 0x9FD JUMPI PUSH0 PUSH0 REVERT JUMPDEST POP GAS CALL ISZERO DUP1 ISZERO PUSH2 0xA0F JUMPI RETURNDATASIZE PUSH0 PUSH0 RETURNDATACOPY RETURNDATASIZE PUSH0 REVERT JUMPDEST POP POP POP POP JUMPDEST PUSH1 0x1 SLOAD PUSH1 0x40 MLOAD PUSH4 0xD47875D PUSH1 0xE4 SHL DUP2 MSTORE PUSH1 0x1 PUSH1 0x1 PUSH1 0xA0 SHL SUB DUP12 DUP2 AND PUSH1 0x4 DUP4 ADD MSTORE PUSH0 SWAP3 AND SWAP1 PUSH4 0xD47875D0 SWAP1 PUSH1 0x24 ADD PUSH1 0x20 PUSH1 0x40 MLOAD DUP1 DUP4 SUB DUP2 DUP7 GAS STATICCALL ISZERO DUP1 ISZERO PUSH2 0xA5C JUMPI RETURNDATASIZE PUSH0 PUSH0 RETURNDATACOPY RETURNDATASIZE PUSH0 REVERT JUMPDEST POP POP POP POP PUSH1 0x40 MLOAD RETURNDATASIZE PUSH1 0x1F NOT PUSH1 0x1F DUP3 ADD AND DUP3 ADD DUP1 PUSH1 0x40 MSTORE POP DUP2 ADD SWAP1 PUSH2 0xA80 SWAP2 SWAP1 PUSH2 0x102C JUMP JUMPDEST SWAP1 POP PUSH0 PUSH2 0xA8E DUP3 DUP10 DUP10 PUSH2 0xC77 JUMP JUMPDEST PUSH1 0x1 SLOAD SWAP1 SWAP2 POP PUSH1 0x1 PUSH1 0x1 PUSH1 0xA0 SHL SUB AND PUSH4 0x933A8681 DUP13 DUP4 DUP8 DUP13 DUP1 PUSH2 0xAE6 JUMPI PUSH1 0x40 MLOAD DUP1 PUSH1 0x40 ADD PUSH1 0x40 MSTORE DUP1 PUSH1 0x1A DUP2 MSTORE PUSH1 0x20 ADD PUSH32 0x43726F73732D636861696E206C6F616E2064656661756C746564000000000000 DUP2 MSTORE POP PUSH2 0xB1D JUMP JUMPDEST PUSH1 0x40 MLOAD DUP1 PUSH1 0x40 ADD PUSH1 0x40 MSTORE DUP1 PUSH1 0x17 DUP2 MSTORE PUSH1 0x20 ADD PUSH32 0x43726F73732D636861696E206C6F616E20726570616964000000000000000000 DUP2 MSTORE POP JUMPDEST PUSH1 0x40 MLOAD DUP7 PUSH4 0xFFFFFFFF AND PUSH1 0xE0 SHL DUP2 MSTORE PUSH1 0x4 ADD PUSH2 0xB3D SWAP6 SWAP5 SWAP4 SWAP3 SWAP2 SWAP1 PUSH2 0x1158 JUMP JUMPDEST PUSH0 PUSH1 0x40 MLOAD DUP1 DUP4 SUB DUP2 PUSH0 DUP8 DUP1 EXTCODESIZE ISZERO DUP1 ISZERO PUSH2 0xB54 JUMPI PUSH0 PUSH0 REVERT JUMPDEST POP GAS CALL ISZERO DUP1 ISZERO PUSH2 0xB66 JUMPI RETURNDATASIZE PUSH0 PUSH0 RETURNDATACOPY RETURNDATASIZE PUSH0 REVERT JUMPDEST POP POP POP POP DUP4 DUP12 PUSH1 0x1 PUSH1 0x1 PUSH1 0xA0 SHL SUB AND PUSH32 0xB988C718DECAEEB26618B2C1E7AE4B5638532A54FE6B7F048FB30102A083740E DUP11 DUP11 DUP11 DUP11 PUSH1 0x40 MLOAD PUSH2 0xBAA SWAP5 SWAP4 SWAP3 SWAP2 SWAP1 PUSH2 0x10AC JUMP JUMPDEST PUSH1 0x40 MLOAD DUP1 SWAP2 SUB SWAP1 LOG3 POP POP POP POP POP POP POP POP POP POP POP JUMP JUMPDEST PUSH2 0xBC7 PUSH2 0xBFC JUMP JUMPDEST PUSH1 0x1 PUSH1 0x1 PUSH1 0xA0 SHL SUB DUP2 AND PUSH2 0xBF0 JUMPI PUSH1 0x40 MLOAD PUSH4 0x1E4FBDF7 PUSH1 0xE0 SHL DUP2 MSTORE PUSH0 PUSH1 0x4 DUP3 ADD MSTORE PUSH1 0x24 ADD PUSH2 0x506 JUMP JUMPDEST PUSH2 0xBF9 DUP2 PUSH2 0xC28 JUMP JUMPDEST POP JUMP JUMPDEST PUSH0 SLOAD PUSH1 0x1 PUSH1 0x1 PUSH1 0xA0 SHL SUB AND CALLER EQ PUSH2 0x259 JUMPI PUSH1 0x40 MLOAD PUSH4 0x118CDAA7 PUSH1 0xE0 SHL DUP2 MSTORE CALLER PUSH1 0x4 DUP3 ADD MSTORE PUSH1 0x24 ADD PUSH2 0x506 JUMP JUMPDEST PUSH0 DUP1 SLOAD PUSH1 0x1 PUSH1 0x1 PUSH1 0xA0 SHL SUB DUP4 DUP2 AND PUSH1 0x1 PUSH1 0x1 PUSH1 0xA0 SHL SUB NOT DUP4 AND DUP2 OR DUP5 SSTORE PUSH1 0x40 MLOAD SWAP2 SWAP1 SWAP3 AND SWAP3 DUP4 SWAP2 PUSH32 0x8BE0079C531659141344CD1FD0A4F28419497F9722A3DAAFE3B4186F6B6457E0 SWAP2 SWAP1 LOG3 POP POP JUMP JUMPDEST PUSH0 PUSH1 0x1 PUSH8 0x8AC7230489E80000 DUP4 GT ISZERO PUSH2 0xC92 JUMPI POP PUSH1 0x3 PUSH2 0xCA6 JUMP JUMPDEST PUSH8 0xDE0B6B3A7640000 DUP4 GT ISZERO PUSH2 0xCA6 JUMPI POP PUSH1 0x2 JUMPDEST DUP4 ISZERO PUSH2 0xCE4 JUMPI PUSH0 PUSH2 0xCB8 DUP3 PUSH1 0x32 PUSH2 0x11C7 JUMP JUMPDEST SWAP1 POP PUSH0 PUSH2 0xCC5 DUP3 DUP9 PUSH2 0x11DE JUMP JUMPDEST SWAP1 POP PUSH2 0x3E8 DUP2 GT PUSH2 0xCD6 JUMPI DUP1 PUSH2 0xCDA JUMP JUMPDEST PUSH2 0x3E8 JUMPDEST SWAP4 POP POP POP POP PUSH2 0xD13 JUMP JUMPDEST PUSH0 PUSH2 0xCF0 DUP3 PUSH1 0x64 PUSH2 0x11C7 JUMP JUMPDEST SWAP1 POP DUP6 DUP2 GT ISZERO PUSH2 0xD04 JUMPI PUSH0 SWAP3 POP POP POP PUSH2 0xD13 JUMP JUMPDEST PUSH2 0xD0E DUP2 DUP8 PUSH2 0x11F1 JUMP JUMPDEST SWAP3 POP POP POP JUMPDEST SWAP4 SWAP3 POP POP POP JUMP JUMPDEST PUSH1 0x40 MLOAD PUSH4 0x473B057F PUSH1 0xE1 SHL DUP2 MSTORE PUSH0 SWAP1 PUSH2 0xFD2 SWAP1 PUSH4 0x8E760AFE SWAP1 PUSH2 0xD43 SWAP1 DUP7 SWAP1 DUP7 SWAP1 PUSH1 0x4 ADD PUSH2 0x1204 JUMP JUMPDEST PUSH1 0x20 PUSH1 0x40 MLOAD DUP1 DUP4 SUB DUP2 DUP7 GAS STATICCALL SWAP3 POP POP POP DUP1 ISZERO PUSH2 0xD7C JUMPI POP PUSH1 0x40 DUP1 MLOAD PUSH1 0x1F RETURNDATASIZE SWAP1 DUP2 ADD PUSH1 0x1F NOT AND DUP3 ADD SWAP1 SWAP3 MSTORE PUSH2 0xD79 SWAP2 DUP2 ADD SWAP1 PUSH2 0x1011 JUMP JUMPDEST PUSH1 0x1 JUMPDEST PUSH2 0xD87 JUMPI POP PUSH0 PUSH2 0xD8A JUMP JUMPDEST SWAP1 POP JUMPDEST SWAP3 SWAP2 POP POP JUMP JUMPDEST PUSH0 PUSH1 0x20 DUP3 DUP5 SUB SLT ISZERO PUSH2 0xDA0 JUMPI PUSH0 PUSH0 REVERT JUMPDEST POP CALLDATALOAD SWAP2 SWAP1 POP JUMP JUMPDEST DUP1 CALLDATALOAD PUSH1 0x1 PUSH1 0x1 PUSH1 0xA0 SHL SUB DUP2 AND DUP2 EQ PUSH2 0xDBD JUMPI PUSH0 PUSH0 REVERT JUMPDEST SWAP2 SWAP1 POP JUMP JUMPDEST DUP1 ISZERO ISZERO DUP2 EQ PUSH2 0xBF9 JUMPI PUSH0 PUSH0 REVERT JUMPDEST PUSH0 PUSH0 DUP4 PUSH1 0x1F DUP5 ADD SLT PUSH2 0xDDF JUMPI PUSH0 PUSH0 REVERT JUMPDEST POP DUP2 CALLDATALOAD PUSH8 0xFFFFFFFFFFFFFFFF DUP2 GT ISZERO PUSH2 0xDF6 JUMPI PUSH0 PUSH0 REVERT JUMPDEST PUSH1 0x20 DUP4 ADD SWAP2 POP DUP4 PUSH1 0x20 DUP3 DUP6 ADD ADD GT ISZERO PUSH2 0xE0D JUMPI PUSH0 PUSH0 REVERT JUMPDEST SWAP3 POP SWAP3 SWAP1 POP JUMP JUMPDEST PUSH0 PUSH0 PUSH0 PUSH0 PUSH0 PUSH1 0x80 DUP7 DUP9 SUB SLT ISZERO PUSH2 0xE28 JUMPI PUSH0 PUSH0 REVERT JUMPDEST PUSH2 0xE31 DUP7 PUSH2 0xDA7 JUMP JUMPDEST SWAP5 POP PUSH1 0x20 DUP7 ADD CALLDATALOAD PUSH2 0xE41 DUP2 PUSH2 0xDC2 JUMP JUMPDEST SWAP4 POP PUSH1 0x40 DUP7 ADD CALLDATALOAD SWAP3 POP PUSH1 0x60 DUP7 ADD CALLDATALOAD PUSH8 0xFFFFFFFFFFFFFFFF DUP2 GT ISZERO PUSH2 0xE63 JUMPI PUSH0 PUSH0 REVERT JUMPDEST PUSH2 0xE6F DUP9 DUP3 DUP10 ADD PUSH2 0xDCF JUMP JUMPDEST SWAP7 SWAP10 SWAP6 SWAP9 POP SWAP4 SWAP7 POP SWAP3 SWAP5 SWAP4 SWAP3 POP POP POP JUMP JUMPDEST PUSH0 PUSH0 DUP4 PUSH1 0x1F DUP5 ADD SLT PUSH2 0xE90 JUMPI PUSH0 PUSH0 REVERT JUMPDEST POP DUP2 CALLDATALOAD PUSH8 0xFFFFFFFFFFFFFFFF DUP2 GT ISZERO PUSH2 0xEA7 JUMPI PUSH0 PUSH0 REVERT JUMPDEST PUSH1 0x20 DUP4 ADD SWAP2 POP DUP4 PUSH1 0x20 DUP3 PUSH1 0x5 SHL DUP6 ADD ADD GT ISZERO PUSH2 0xE0D JUMPI PUSH0 PUSH0 REVERT JUMPDEST PUSH0 PUSH0 PUSH0 PUSH0 PUSH0 PUSH0 PUSH0 PUSH1 0x80 DUP9 DUP11 SUB SLT ISZERO PUSH2 0xED7 JUMPI PUSH0 PUSH0 REVERT JUMPDEST PUSH2 0xEE0 DUP9 PUSH2 0xDA7 JUMP JUMPDEST SWAP7 POP PUSH1 0x20 DUP9 ADD CALLDATALOAD PUSH8 0xFFFFFFFFFFFFFFFF DUP2 GT ISZERO PUSH2 0xEFB JUMPI PUSH0 PUSH0 REVERT JUMPDEST PUSH2 0xF07 DUP11 DUP3 DUP12 ADD PUSH2 0xE80 JUMP JUMPDEST SWAP1 SWAP8 POP SWAP6 POP POP PUSH1 0x40 DUP9 ADD CALLDATALOAD PUSH8 0xFFFFFFFFFFFFFFFF DUP2 GT ISZERO PUSH2 0xF26 JUMPI PUSH0 PUSH0 REVERT JUMPDEST PUSH2 0xF32 DUP11 DUP3 DUP12 ADD PUSH2 0xE80 JUMP JUMPDEST SWAP1 SWAP6 POP SWAP4 POP POP PUSH1 0x60 DUP9 ADD CALLDATALOAD PUSH8 0xFFFFFFFFFFFFFFFF DUP2 GT ISZERO PUSH2 0xF51 JUMPI PUSH0 PUSH0 REVERT JUMPDEST PUSH2 0xF5D DUP11 DUP3 DUP12 ADD PUSH2 0xE80 JUMP JUMPDEST SWAP9 SWAP12 SWAP8 SWAP11 POP SWAP6 SWAP9 POP SWAP4 SWAP7 SWAP3 SWAP6 SWAP3 SWAP4 POP POP POP JUMP JUMPDEST PUSH0 PUSH0 PUSH0 PUSH0 PUSH0 PUSH0 PUSH0 PUSH1 0xA0 DUP9 DUP11 SUB SLT ISZERO PUSH2 0xF86 JUMPI PUSH0 PUSH0 REVERT JUMPDEST PUSH2 0xF8F DUP9 PUSH2 0xDA7 JUMP JUMPDEST SWAP7 POP PUSH1 0x20 DUP9 ADD CALLDATALOAD PUSH8 0xFFFFFFFFFFFFFFFF DUP2 GT ISZERO PUSH2 0xFAA JUMPI PUSH0 PUSH0 REVERT JUMPDEST PUSH2 0xFB6 DUP11 DUP3 DUP12 ADD PUSH2 0xDCF JUMP JUMPDEST SWAP1 SWAP8 POP SWAP6 POP POP PUSH1 0x40 DUP9 ADD CALLDATALOAD PUSH2 0xFCA DUP2 PUSH2 0xDC2 JUMP JUMPDEST SWAP4 POP PUSH1 0x60 DUP9 ADD CALLDATALOAD SWAP3 POP PUSH1 0x80 DUP9 ADD CALLDATALOAD PUSH8 0xFFFFFFFFFFFFFFFF DUP2 GT ISZERO PUSH2 0xFEC JUMPI PUSH0 PUSH0 REVERT JUMPDEST PUSH2 0xF5D DUP11 DUP3 DUP12 ADD PUSH2 0xDCF JUMP JUMPDEST PUSH0 PUSH1 0x20 DUP3 DUP5 SUB SLT ISZERO PUSH2 0x1008 JUMPI PUSH0 PUSH0 REVERT JUMPDEST PUSH2 0xD13 DUP3 PUSH2 0xDA7 JUMP JUMPDEST PUSH0 PUSH1 0x20 DUP3 DUP5 SUB SLT ISZERO PUSH2 0x1021 JUMPI PUSH0 PUSH0 REVERT JUMPDEST DUP2 MLOAD PUSH2 0xD13 DUP2 PUSH2 0xDC2 JUMP JUMPDEST PUSH0 PUSH1 0x20 DUP3 DUP5 SUB SLT ISZERO PUSH2 0x103C JUMPI PUSH0 PUSH0 REVERT JUMPDEST POP MLOAD SWAP2 SWAP1 POP JUMP JUMPDEST DUP2 DUP4 MSTORE DUP2 DUP2 PUSH1 0x20 DUP6 ADD CALLDATACOPY POP PUSH0 DUP3 DUP3 ADD PUSH1 0x20 SWAP1 DUP2 ADD SWAP2 SWAP1 SWAP2 MSTORE PUSH1 0x1F SWAP1 SWAP2 ADD PUSH1 0x1F NOT AND SWAP1 SWAP2 ADD ADD SWAP1 JUMP JUMPDEST PUSH1 0x1 DUP1 PUSH1 0xA0 SHL SUB DUP8 AND DUP2 MSTORE DUP6 PUSH1 0x20 DUP3 ADD MSTORE DUP5 PUSH1 0x40 DUP3 ADD MSTORE DUP4 ISZERO ISZERO PUSH1 0x60 DUP3 ADD MSTORE PUSH1 0xA0 PUSH1 0x80 DUP3 ADD MSTORE PUSH0 PUSH2 0x10A0 PUSH1 0xA0 DUP4 ADD DUP5 DUP7 PUSH2 0x1043 JUMP JUMPDEST SWAP9 SWAP8 POP POP POP POP POP POP POP POP JUMP JUMPDEST DUP5 ISZERO ISZERO DUP2 MSTORE DUP4 PUSH1 0x20 DUP3 ADD MSTORE PUSH1 0x60 PUSH1 0x40 DUP3 ADD MSTORE PUSH0 PUSH2 0x10CD PUSH1 0x60 DUP4 ADD DUP5 DUP7 PUSH2 0x1043 JUMP JUMPDEST SWAP7 SWAP6 POP POP POP POP POP POP JUMP JUMPDEST PUSH4 0x4E487B71 PUSH1 0xE0 SHL PUSH0 MSTORE PUSH1 0x32 PUSH1 0x4 MSTORE PUSH1 0x24 PUSH0 REVERT JUMPDEST PUSH0 PUSH1 0x20 DUP3 DUP5 SUB SLT ISZERO PUSH2 0x10FB JUMPI PUSH0 PUSH0 REVERT JUMPDEST DUP2 CALLDATALOAD PUSH2 0xD13 DUP2 PUSH2 0xDC2 JUMP JUMPDEST PUSH0 PUSH0 DUP4 CALLDATALOAD PUSH1 0x1E NOT DUP5 CALLDATASIZE SUB ADD DUP2 SLT PUSH2 0x111B JUMPI PUSH0 PUSH0 REVERT JUMPDEST DUP4 ADD DUP1 CALLDATALOAD SWAP2 POP PUSH8 0xFFFFFFFFFFFFFFFF DUP3 GT ISZERO PUSH2 0x1135 JUMPI PUSH0 PUSH0 REVERT JUMPDEST PUSH1 0x20 ADD SWAP2 POP CALLDATASIZE DUP2 SWAP1 SUB DUP3 SGT ISZERO PUSH2 0xE0D JUMPI PUSH0 PUSH0 REVERT JUMPDEST DUP2 DUP4 DUP3 CALLDATACOPY PUSH0 SWAP2 ADD SWAP1 DUP2 MSTORE SWAP2 SWAP1 POP JUMP JUMPDEST PUSH1 0x1 DUP1 PUSH1 0xA0 SHL SUB DUP7 AND DUP2 MSTORE DUP5 PUSH1 0x20 DUP3 ADD MSTORE DUP4 PUSH1 0x40 DUP3 ADD MSTORE DUP3 ISZERO ISZERO PUSH1 0x60 DUP3 ADD MSTORE PUSH1 0xA0 PUSH1 0x80 DUP3 ADD MSTORE PUSH0 DUP3 MLOAD DUP1 PUSH1 0xA0 DUP5 ADD MSTORE DUP1 PUSH1 0x20 DUP6 ADD PUSH1 0xC0 DUP6 ADD MCOPY PUSH0 PUSH1 0xC0 DUP3 DUP6 ADD ADD MSTORE PUSH1 0xC0 PUSH1 0x1F NOT PUSH1 0x1F DUP4 ADD AND DUP5 ADD ADD SWAP2 POP POP SWAP7 SWAP6 POP POP POP POP POP POP JUMP JUMPDEST PUSH4 0x4E487B71 PUSH1 0xE0 SHL PUSH0 MSTORE PUSH1 0x11 PUSH1 0x4 MSTORE PUSH1 0x24 PUSH0 REVERT JUMPDEST DUP1 DUP3 MUL DUP2 ISZERO DUP3 DUP3 DIV DUP5 EQ OR PUSH2 0xD8A JUMPI PUSH2 0xD8A PUSH2 0x11B3 JUMP JUMPDEST DUP1 DUP3 ADD DUP1 DUP3 GT ISZERO PUSH2 0xD8A JUMPI PUSH2 0xD8A PUSH2 0x11B3 JUMP JUMPDEST DUP2 DUP2 SUB DUP2 DUP2 GT ISZERO PUSH2 0xD8A JUMPI PUSH2 0xD8A PUSH2 0x11B3 JUMP JUMPDEST PUSH1 0x20 DUP2 MSTORE PUSH0 PUSH2 0x1217 PUSH1 0x20 DUP4 ADD DUP5 DUP7 PUSH2 0x1043 JUMP JUMPDEST SWAP5 SWAP4 POP POP POP POP JUMP INVALID LOG2 PUSH5 0x6970667358 0x22 SLT KECCAK256 0xE0 PUSH3 0x9636E6 XOR PUSH29 0x300E7A23A62E024CFBB6F98C0F374CBA50221CAD131405EA8864736F6C PUSH4 0x4300081C STOP CALLER "},"methodIdentifiers":{"BASE_SCORE()":"7effe568","DEFAULT_PENALTY()":"bf15e017","MAX_SCORE()":"27ff6223","MIN_SCORE()":"40b89270","REPAYMENT_BOOST()":"a6396e4d","batchRegisterEvents(address,bool[],uint256[],string[])":"c483d555","getLTVForScore(uint256)":"06ec2985","owner()":"8da5cb5b","processedProofs(bytes32)":"839139c6","registerLoanEvent(address,bool,uint256,string)":"8d20661f","renounceOwnership()":"715018a6","reputation()":"c52164c6","transferOwnership(address)":"f2fde38b","verifyCrossChainEvent(address,bytes,bool,uint256,string)":"d8b39203"}}}}}