{
  "_format": "hh-sol-artifact-1",
  "contractName": "UniversalVerifier",
  "sourceName": "contracts/UniversalVerifier.sol",
  "abi": [
    {
      "inputs": [
        {
          "internalType": "address",
          "name": "_reputation",
          "type": "address"
        }
      ],
      "stateMutability": "nonpayable",
      "type": "constructor"
    },
    {
      "inputs": [
        {
          "internalType": "address",
          "name": "owner",
          "type": "address"
        }
      ],
      "name": "OwnableInvalidOwner",
      "type": "error"
    },
    {
      "inputs": [
        {
          "internalType": "address",
          "name": "account",
          "type": "address"
        }
      ],
      "name": "OwnableUnauthorizedAccount",
      "type": "error"
    },
    {
      "anonymous": false,
      "inputs": [
        {
          "indexed": true,
          "internalType": "address",
          "name": "user",
          "type": "address"
        },
        {
          "indexed": true,
          "internalType": "bytes32",
          "name": "proofHash",
          "type": "bytes32"
        },
        {
          "indexed": false,
          "internalType": "bool",
          "name": "isRepayment",
          "type": "bool"
        },
        {
          "indexed": false,
          "internalType": "uint256",
          "name": "loanAmount",
          "type": "uint256"
        },
        {
          "indexed": false,
          "internalType": "string",
          "name": "sourceChain",
          "type": "string"
        }
      ],
      "name": "CrossChainVerified",
      "type": "event"
    },
    {
      "anonymous": false,
      "inputs": [
        {
          "indexed": true,
          "internalType": "address",
          "name": "user",
          "type": "address"
        },
        {
          "indexed": false,
          "internalType": "bool",
          "name": "isRepayment",
          "type": "bool"
        },
        {
          "indexed": false,
          "internalType": "uint256",
          "name": "loanAmount",
          "type": "uint256"
        },
        {
          "indexed": false,
          "internalType": "string",
          "name": "reason",
          "type": "string"
        }
      ],
      "name": "ManualVerification",
      "type": "event"
    },
    {
      "anonymous": false,
      "inputs": [
        {
          "indexed": true,
          "internalType": "address",
          "name": "previousOwner",
          "type": "address"
        },
        {
          "indexed": true,
          "internalType": "address",
          "name": "newOwner",
          "type": "address"
        }
      ],
      "name": "OwnershipTransferred",
      "type": "event"
    },
    {
      "inputs": [],
      "name": "BASE_SCORE",
      "outputs": [
        {
          "internalType": "uint256",
          "name": "",
          "type": "uint256"
        }
      ],
      "stateMutability": "view",
      "type": "function"
    },
    {
      "inputs": [],
      "name": "DEFAULT_PENALTY",
      "outputs": [
        {
          "internalType": "uint256",
          "name": "",
          "type": "uint256"
        }
      ],
      "stateMutability": "view",
      "type": "function"
    },
    {
      "inputs": [],
      "name": "MAX_SCORE",
      "outputs": [
        {
          "internalType": "uint256",
          "name": "",
          "type": "uint256"
        }
      ],
      "stateMutability": "view",
      "type": "function"
    },
    {
      "inputs": [],
      "name": "MIN_SCORE",
      "outputs": [
        {
          "internalType": "uint256",
          "name": "",
          "type": "uint256"
        }
      ],
      "stateMutability": "view",
      "type": "function"
    },
    {
      "inputs": [],
      "name": "REPAYMENT_BOOST",
      "outputs": [
        {
          "internalType": "uint256",
          "name": "",
          "type": "uint256"
        }
      ],
      "stateMutability": "view",
      "type": "function"
    },
    {
      "inputs": [
        {
          "internalType": "address",
          "name": "user",
          "type": "address"
        },
        {
          "internalType": "bool[]",
          "name": "isRepayments",
          "type": "bool[]"
        },
        {
          "internalType": "uint256[]",
          "name": "amounts",
          "type": "uint256[]"
        },
        {
          "internalType": "string[]",
          "name": "reasons",
          "type": "string[]"
        }
      ],
      "name": "batchRegisterEvents",
      "outputs": [],
      "stateMutability": "nonpayable",
      "type": "function"
    },
    {
      "inputs": [
        {
          "internalType": "uint256",
          "name": "score",
          "type": "uint256"
        }
      ],
      "name": "getLTVForScore",
      "outputs": [
        {
          "internalType": "uint256",
          "name": "ltvBps",
          "type": "uint256"
        }
      ],
      "stateMutability": "pure",
      "type": "function"
    },
    {
      "inputs": [],
      "name": "owner",
      "outputs": [
        {
          "internalType": "address",
          "name": "",
          "type": "address"
        }
      ],
      "stateMutability": "view",
      "type": "function"
    },
    {
      "inputs": [
        {
          "internalType": "bytes32",
          "name": "",
          "type": "bytes32"
        }
      ],
      "name": "processedProofs",
      "outputs": [
        {
          "internalType": "bool",
          "name": "",
          "type": "bool"
        }
      ],
      "stateMutability": "view",
      "type": "function"
    },
    {
      "inputs": [
        {
          "internalType": "address",
          "name": "user",
          "type": "address"
        },
        {
          "internalType": "bool",
          "name": "isRepayment",
          "type": "bool"
        },
        {
          "internalType": "uint256",
          "name": "loanAmount",
          "type": "uint256"
        },
        {
          "internalType": "string",
          "name": "reason",
          "type": "string"
        }
      ],
      "name": "registerLoanEvent",
      "outputs": [],
      "stateMutability": "nonpayable",
      "type": "function"
    },
    {
      "inputs": [],
      "name": "renounceOwnership",
      "outputs": [],
      "stateMutability": "nonpayable",
      "type": "function"
    },
    {
      "inputs": [],
      "name": "reputation",
      "outputs": [
        {
          "internalType": "contract CreditReputation",
          "name": "",
          "type": "address"
        }
      ],
      "stateMutability": "view",
      "type": "function"
    },
    {
      "inputs": [
        {
          "internalType": "address",
          "name": "newOwner",
          "type": "address"
        }
      ],
      "name": "transferOwnership",
      "outputs": [],
      "stateMutability": "nonpayable",
      "type": "function"
    },
    {
      "inputs": [
        {
          "internalType": "address",
          "name": "user",
          "type": "address"
        },
        {
          "internalType": "bytes",
          "name": "proof",
          "type": "bytes"
        },
        {
          "internalType": "bool",
          "name": "isRepayment",
          "type": "bool"
        },
        {
          "internalType": "uint256",
          "name": "loanAmount",
          "type": "uint256"
        },
        {
          "internalType": "string",
          "name": "sourceChain",
          "type": "string"
        }
      ],
      "name": "verifyCrossChainEvent",
      "outputs": [],
      "stateMutability": "nonpayable",
      "type": "function"
    }
  ],
  "bytecode": "0x608060405234801561000f575f5ffd5b5060405161136038038061136083398101604081905261002e916100d1565b338061005357604051631e4fbdf760e01b81525f600482015260240160405180910390fd5b61005c81610082565b50600180546001600160a01b0319166001600160a01b03929092169190911790556100fe565b5f80546001600160a01b038381166001600160a01b0319831681178455604051919092169283917f8be0079c531659141344cd1fd0a4f28419497f9722a3daafe3b4186f6b6457e09190a35050565b5f602082840312156100e1575f5ffd5b81516001600160a01b03811681146100f7575f5ffd5b9392505050565b6112558061010b5f395ff3fe608060405234801561000f575f5ffd5b50600436106100e5575f3560e01c80638da5cb5b11610088578063c483d55511610063578063c483d555146101ab578063c52164c6146101be578063d8b39203146101d1578063f2fde38b146101e4575f5ffd5b80638da5cb5b14610177578063a6396e4d1461019b578063bf15e017146101a3575f5ffd5b8063715018a6116100c3578063715018a61461011f5780637effe56814610129578063839139c6146101325780638d20661f14610164575f5ffd5b806306ec2985146100e957806327ff62231461010f57806340b8927014610118575b5f5ffd5b6100fc6100f7366004610d90565b6101f7565b6040519081526020015b60405180910390f35b6100fc6103e881565b6100fc5f81565b610127610248565b005b6100fc61012c81565b610154610140366004610d90565b60026020525f908152604090205460ff1681565b6040519015158152602001610106565b610127610172366004610e14565b61025b565b5f546001600160a01b03165b6040516001600160a01b039091168152602001610106565b6100fc603281565b6100fc606481565b6101276101b9366004610ec1565b6104bb565b600154610183906001600160a01b031681565b6101276101df366004610f70565b610850565b6101276101f2366004610ff8565b610bbf565b5f610384821061020a5750611388919050565b6102ee821061021c5750611d4c919050565b6101f4821061022e5750612710919050565b60c8821061023f5750612ee0919050565b50613a98919050565b610250610bfc565b6102595f610c28565b565b610263610bfc565b600154604051631fca7b9360e21b81526001600160a01b03878116600483015290911690637f29ee4c90602401602060405180830381865afa1580156102ab573d5f5f3e3d5ffd5b505050506040513d601f19601f820116820180604052508101906102cf9190611011565b61033657600154604051631287995760e31b81526001600160a01b03878116600483015261012c60248301529091169063943ccab8906044015f604051808303815f87803b15801561031f575f5ffd5b505af1158015610331573d5f5f3e3d5ffd5b505050505b600154604051630d47875d60e41b81526001600160a01b0387811660048301525f92169063d47875d090602401602060405180830381865afa15801561037e573d5f5f3e3d5ffd5b505050506040513d601f19601f820116820180604052508101906103a2919061102c565b90505f6103b0828787610c77565b6040516bffffffffffffffffffffffff1960608a901b16602082015287151560f81b6034820152603581018790524260558201529091505f9060750160408051601f1981840301815290829052805160209091012060015463933a868160e01b83529092506001600160a01b03169063933a86819061043d908b90869086908d908c908c9060040161106b565b5f604051808303815f87803b158015610454575f5ffd5b505af1158015610466573d5f5f3e3d5ffd5b50505050876001600160a01b03167f1d07769b2c3a548c93e0fadf2064ae863a73148a609605169437f3ebd7f28c77888888886040516104a994939291906110ac565b60405180910390a25050505050505050565b6104c3610bfc565b84831461050f5760405162461bcd60e51b8152602060048201526015602482015274082e4e4c2f240d8cadccee8d040dad2e6dac2e8c6d605b1b60448201526064015b60405180910390fd5b8281146105565760405162461bcd60e51b8152602060048201526015602482015274082e4e4c2f240d8cadccee8d040dad2e6dac2e8c6d605b1b6044820152606401610506565b600154604051631fca7b9360e21b81526001600160a01b03898116600483015290911690637f29ee4c90602401602060405180830381865afa15801561059e573d5f5f3e3d5ffd5b505050506040513d601f19601f820116820180604052508101906105c29190611011565b61062957600154604051631287995760e31b81526001600160a01b03898116600483015261012c60248301529091169063943ccab8906044015f604051808303815f87803b158015610612575f5ffd5b505af1158015610624573d5f5f3e3d5ffd5b505050505b5f5b8581101561084657600154604051630d47875d60e41b81526001600160a01b038a811660048301525f92169063d47875d090602401602060405180830381865afa15801561067b573d5f5f3e3d5ffd5b505050506040513d601f19601f8201168201806040525081019061069f919061102c565b90505f6106eb828a8a868181106106b8576106b86110d7565b90506020020160208101906106cd91906110eb565b8989878181106106df576106df6110d7565b90506020020135610c77565b90505f8a8a8a86818110610701576107016110d7565b905060200201602081019061071691906110eb565b898987818110610728576107286110d7565b60405160609590951b6bffffffffffffffffffffffff191660208087019190915293151560f81b603486015290920201356035830152504260558201526075810185905260950160408051601f1981840301815291905280516020909101206001549091506001600160a01b031663933a86818c84848e8e8a8181106107b0576107b06110d7565b90506020020160208101906107c591906110eb565b8b8b8b8181106107d7576107d76110d7565b90506020028101906107e99190611106565b6040518763ffffffff1660e01b815260040161080a9695949392919061106b565b5f604051808303815f87803b158015610821575f5ffd5b505af1158015610833573d5f5f3e3d5ffd5b50506001909501945061062b9350505050565b5050505050505050565b5f8686604051610861929190611149565b60408051918290039091205f8181526002602052919091205490915060ff16156108cd5760405162461bcd60e51b815260206004820152601760248201527f50726f6f6620616c72656164792070726f6365737365640000000000000000006044820152606401610506565b5f6108d88888610d1a565b9050806109275760405162461bcd60e51b815260206004820152601760248201527f55534320766572696669636174696f6e206661696c65640000000000000000006044820152606401610506565b5f8281526002602052604090819020805460ff19166001908117909155549051631fca7b9360e21b81526001600160a01b038b8116600483015290911690637f29ee4c90602401602060405180830381865afa158015610989573d5f5f3e3d5ffd5b505050506040513d601f19601f820116820180604052508101906109ad9190611011565b610a1457600154604051631287995760e31b81526001600160a01b038b8116600483015261012c60248301529091169063943ccab8906044015f604051808303815f87803b1580156109fd575f5ffd5b505af1158015610a0f573d5f5f3e3d5ffd5b505050505b600154604051630d47875d60e41b81526001600160a01b038b811660048301525f92169063d47875d090602401602060405180830381865afa158015610a5c573d5f5f3e3d5ffd5b505050506040513d601f19601f82011682018060405250810190610a80919061102c565b90505f610a8e828989610c77565b6001549091506001600160a01b031663933a86818c83878c80610ae6576040518060400160405280601a81526020017f43726f73732d636861696e206c6f616e2064656661756c746564000000000000815250610b1d565b6040518060400160405280601781526020017f43726f73732d636861696e206c6f616e207265706169640000000000000000008152505b6040518663ffffffff1660e01b8152600401610b3d959493929190611158565b5f604051808303815f87803b158015610b54575f5ffd5b505af1158015610b66573d5f5f3e3d5ffd5b50505050838b6001600160a01b03167fb988c718decaeeb26618b2c1e7ae4b5638532a54fe6b7f048fb30102a083740e8a8a8a8a604051610baa94939291906110ac565b60405180910390a35050505050505050505050565b610bc7610bfc565b6001600160a01b038116610bf057604051631e4fbdf760e01b81525f6004820152602401610506565b610bf981610c28565b50565b5f546001600160a01b031633146102595760405163118cdaa760e01b8152336004820152602401610506565b5f80546001600160a01b038381166001600160a01b0319831681178455604051919092169283917f8be0079c531659141344cd1fd0a4f28419497f9722a3daafe3b4186f6b6457e09190a35050565b5f6001678ac7230489e80000831115610c9257506003610ca6565b670de0b6b3a7640000831115610ca6575060025b8315610ce4575f610cb88260326111c7565b90505f610cc582886111de565b90506103e88111610cd65780610cda565b6103e85b9350505050610d13565b5f610cf08260646111c7565b905085811115610d04575f92505050610d13565b610d0e81876111f1565b925050505b9392505050565b60405163473b057f60e11b81525f90610fd290638e760afe90610d439086908690600401611204565b602060405180830381865afa925050508015610d7c575060408051601f3d908101601f19168201909252610d7991810190611011565b60015b610d8757505f610d8a565b90505b92915050565b5f60208284031215610da0575f5ffd5b5035919050565b80356001600160a01b0381168114610dbd575f5ffd5b919050565b8015158114610bf9575f5ffd5b5f5f83601f840112610ddf575f5ffd5b50813567ffffffffffffffff811115610df6575f5ffd5b602083019150836020828501011115610e0d575f5ffd5b9250929050565b5f5f5f5f5f60808688031215610e28575f5ffd5b610e3186610da7565b94506020860135610e4181610dc2565b935060408601359250606086013567ffffffffffffffff811115610e63575f5ffd5b610e6f88828901610dcf565b969995985093965092949392505050565b5f5f83601f840112610e90575f5ffd5b50813567ffffffffffffffff811115610ea7575f5ffd5b6020830191508360208260051b8501011115610e0d575f5ffd5b5f5f5f5f5f5f5f6080888a031215610ed7575f5ffd5b610ee088610da7565b9650602088013567ffffffffffffffff811115610efb575f5ffd5b610f078a828b01610e80565b909750955050604088013567ffffffffffffffff811115610f26575f5ffd5b610f328a828b01610e80565b909550935050606088013567ffffffffffffffff811115610f51575f5ffd5b610f5d8a828b01610e80565b989b979a50959850939692959293505050565b5f5f5f5f5f5f5f60a0888a031215610f86575f5ffd5b610f8f88610da7565b9650602088013567ffffffffffffffff811115610faa575f5ffd5b610fb68a828b01610dcf565b9097509550506040880135610fca81610dc2565b935060608801359250608088013567ffffffffffffffff811115610fec575f5ffd5b610f5d8a828b01610dcf565b5f60208284031215611008575f5ffd5b610d1382610da7565b5f60208284031215611021575f5ffd5b8151610d1381610dc2565b5f6020828403121561103c575f5ffd5b5051919050565b81835281816020850137505f828201602090810191909152601f909101601f19169091010190565b60018060a01b0387168152856020820152846040820152831515606082015260a060808201525f6110a060a083018486611043565b98975050505050505050565b8415158152836020820152606060408201525f6110cd606083018486611043565b9695505050505050565b634e487b7160e01b5f52603260045260245ffd5b5f602082840312156110fb575f5ffd5b8135610d1381610dc2565b5f5f8335601e1984360301811261111b575f5ffd5b83018035915067ffffffffffffffff821115611135575f5ffd5b602001915036819003821315610e0d575f5ffd5b818382375f9101908152919050565b60018060a01b0386168152846020820152836040820152821515606082015260a060808201525f82518060a0840152806020850160c085015e5f60c0828501015260c0601f19601f8301168401019150509695505050505050565b634e487b7160e01b5f52601160045260245ffd5b8082028115828204841417610d8a57610d8a6111b3565b80820180821115610d8a57610d8a6111b3565b81810381811115610d8a57610d8a6111b3565b602081525f611217602083018486611043565b94935050505056fea2646970667358221220e0629636e6187c300e7a23a62e024cfbb6f98c0f374cba50221cad131405ea8864736f6c634300081c0033",
  "linkReferences": {},
  "deployedLinkReferences": {}
}