{
  "_format": "hh-sol-artifact-1",
  "contractName": "CreditReputation",
  "sourceName": "contracts/CreditReputation.sol",
  "abi": [
    {
      "inputs": [],
      "stateMutability": "nonpayable",
      "type": "constructor"
    },
    {
      "inputs": [
        {
          "internalType": "address",
          "name": "sender",
          "type": "address"
        },
        {
          "internalType": "uint256",
          "name": "tokenId",
          "type": "uint256"
        },
        {
          "internalType": "address",
          "name": "owner",
          "type": "address"
        }
      ],
      "name": "ERC721IncorrectOwner",
      "type": "error"
    },
    {
      "inputs": [
        {
          "internalType": "address",
          "name": "operator",
          "type": "address"
        },
        {
          "internalType": "uint256",
          "name": "tokenId",
          "type": "uint256"
        }
      ],
      "name": "ERC721InsufficientApproval",
      "type": "error"
    },
    {
      "inputs": [
        {
          "internalType": "address",
          "name": "approver",
          "type": "address"
        }
      ],
      "name": "ERC721InvalidApprover",
      "type": "error"
    },
    {
      "inputs": [
        {
          "internalType": "address",
          "name": "operator",
          "type": "address"
        }
      ],
      "name": "ERC721InvalidOperator",
      "type": "error"
    },
    {
      "inputs": [
        {
          "internalType": "address",
          "name": "owner",
          "type": "address"
        }
      ],
      "name": "ERC721InvalidOwner",
      "type": "error"
    },
    {
      "inputs": [
        {
          "internalType": "address",
          "name": "receiver",
          "type": "address"
        }
      ],
      "name": "ERC721InvalidReceiver",
      "type": "error"
    },
    {
      "inputs": [
        {
          "internalType": "address",
          "name": "sender",
          "type": "address"
        }
      ],
      "name": "ERC721InvalidSender",
      "type": "error"
    },
    {
      "inputs": [
        {
          "internalType": "uint256",
          "name": "tokenId",
          "type": "uint256"
        }
      ],
      "name": "ERC721NonexistentToken",
      "type": "error"
    },
    {
      "inputs": [
        {
          "internalType": "address",
          "name": "owner",
          "type": "address"
        }
      ],
      "name": "OwnableInvalidOwner",
      "type": "error"
    },
    {
      "inputs": [
        {
          "internalType": "address",
          "name": "account",
          "type": "address"
        }
      ],
      "name": "OwnableUnauthorizedAccount",
      "type": "error"
    },
    {
      "anonymous": false,
      "inputs": [
        {
          "indexed": true,
          "internalType": "address",
          "name": "owner",
          "type": "address"
        },
        {
          "indexed": true,
          "internalType": "address",
          "name": "approved",
          "type": "address"
        },
        {
          "indexed": true,
          "internalType": "uint256",
          "name": "tokenId",
          "type": "uint256"
        }
      ],
      "name": "Approval",
      "type": "event"
    },
    {
      "anonymous": false,
      "inputs": [
        {
          "indexed": true,
          "internalType": "address",
          "name": "owner",
          "type": "address"
        },
        {
          "indexed": true,
          "internalType": "address",
          "name": "operator",
          "type": "address"
        },
        {
          "indexed": false,
          "internalType": "bool",
          "name": "approved",
          "type": "bool"
        }
      ],
      "name": "ApprovalForAll",
      "type": "event"
    },
    {
      "anonymous": false,
      "inputs": [
        {
          "indexed": true,
          "internalType": "address",
          "name": "previousOwner",
          "type": "address"
        },
        {
          "indexed": true,
          "internalType": "address",
          "name": "newOwner",
          "type": "address"
        }
      ],
      "name": "OwnershipTransferred",
      "type": "event"
    },
    {
      "anonymous": false,
      "inputs": [
        {
          "indexed": true,
          "internalType": "address",
          "name": "user",
          "type": "address"
        },
        {
          "indexed": false,
          "internalType": "uint256",
          "name": "tokenId",
          "type": "uint256"
        },
        {
          "indexed": false,
          "internalType": "uint256",
          "name": "initialScore",
          "type": "uint256"
        }
      ],
      "name": "ReputationMinted",
      "type": "event"
    },
    {
      "anonymous": false,
      "inputs": [
        {
          "indexed": true,
          "internalType": "address",
          "name": "user",
          "type": "address"
        },
        {
          "indexed": false,
          "internalType": "uint256",
          "name": "oldScore",
          "type": "uint256"
        },
        {
          "indexed": false,
          "internalType": "uint256",
          "name": "newScore",
          "type": "uint256"
        },
        {
          "indexed": false,
          "internalType": "string",
          "name": "reason",
          "type": "string"
        }
      ],
      "name": "ScoreUpdated",
      "type": "event"
    },
    {
      "anonymous": false,
      "inputs": [
        {
          "indexed": true,
          "internalType": "address",
          "name": "from",
          "type": "address"
        },
        {
          "indexed": true,
          "internalType": "address",
          "name": "to",
          "type": "address"
        },
        {
          "indexed": true,
          "internalType": "uint256",
          "name": "tokenId",
          "type": "uint256"
        }
      ],
      "name": "Transfer",
      "type": "event"
    },
    {
      "anonymous": false,
      "inputs": [
        {
          "indexed": true,
          "internalType": "address",
          "name": "oldVerifier",
          "type": "address"
        },
        {
          "indexed": true,
          "internalType": "address",
          "name": "newVerifier",
          "type": "address"
        }
      ],
      "name": "VerifierUpdated",
      "type": "event"
    },
    {
      "inputs": [
        {
          "internalType": "address",
          "name": "",
          "type": "address"
        },
        {
          "internalType": "uint256",
          "name": "",
          "type": "uint256"
        }
      ],
      "name": "approve",
      "outputs": [],
      "stateMutability": "pure",
      "type": "function"
    },
    {
      "inputs": [
        {
          "internalType": "address",
          "name": "owner",
          "type": "address"
        }
      ],
      "name": "balanceOf",
      "outputs": [
        {
          "internalType": "uint256",
          "name": "",
          "type": "uint256"
        }
      ],
      "stateMutability": "view",
      "type": "function"
    },
    {
      "inputs": [
        {
          "internalType": "uint256",
          "name": "tokenId",
          "type": "uint256"
        }
      ],
      "name": "getApproved",
      "outputs": [
        {
          "internalType": "address",
          "name": "",
          "type": "address"
        }
      ],
      "stateMutability": "view",
      "type": "function"
    },
    {
      "inputs": [
        {
          "internalType": "address",
          "name": "user",
          "type": "address"
        }
      ],
      "name": "getReputation",
      "outputs": [
        {
          "internalType": "uint256",
          "name": "score",
          "type": "uint256"
        },
        {
          "internalType": "uint256",
          "name": "totalLoans",
          "type": "uint256"
        },
        {
          "internalType": "uint256",
          "name": "repaidLoans",
          "type": "uint256"
        },
        {
          "internalType": "uint256",
          "name": "defaultedLoans",
          "type": "uint256"
        },
        {
          "internalType": "uint256",
          "name": "lastUpdated",
          "type": "uint256"
        },
        {
          "internalType": "uint256",
          "name": "proofCount",
          "type": "uint256"
        }
      ],
      "stateMutability": "view",
      "type": "function"
    },
    {
      "inputs": [
        {
          "internalType": "address",
          "name": "user",
          "type": "address"
        }
      ],
      "name": "getScore",
      "outputs": [
        {
          "internalType": "uint256",
          "name": "",
          "type": "uint256"
        }
      ],
      "stateMutability": "view",
      "type": "function"
    },
    {
      "inputs": [
        {
          "internalType": "address",
          "name": "user",
          "type": "address"
        }
      ],
      "name": "hasReputation",
      "outputs": [
        {
          "internalType": "bool",
          "name": "",
          "type": "bool"
        }
      ],
      "stateMutability": "view",
      "type": "function"
    },
    {
      "inputs": [
        {
          "internalType": "address",
          "name": "owner",
          "type": "address"
        },
        {
          "internalType": "address",
          "name": "operator",
          "type": "address"
        }
      ],
      "name": "isApprovedForAll",
      "outputs": [
        {
          "internalType": "bool",
          "name": "",
          "type": "bool"
        }
      ],
      "stateMutability": "view",
      "type": "function"
    },
    {
      "inputs": [
        {
          "internalType": "address",
          "name": "user",
          "type": "address"
        },
        {
          "internalType": "uint256",
          "name": "initialScore",
          "type": "uint256"
        }
      ],
      "name": "mintReputation",
      "outputs": [],
      "stateMutability": "nonpayable",
      "type": "function"
    },
    {
      "inputs": [],
      "name": "name",
      "outputs": [
        {
          "internalType": "string",
          "name": "",
          "type": "string"
        }
      ],
      "stateMutability": "view",
      "type": "function"
    },
    {
      "inputs": [],
      "name": "owner",
      "outputs": [
        {
          "internalType": "address",
          "name": "",
          "type": "address"
        }
      ],
      "stateMutability": "view",
      "type": "function"
    },
    {
      "inputs": [
        {
          "internalType": "uint256",
          "name": "tokenId",
          "type": "uint256"
        }
      ],
      "name": "ownerOf",
      "outputs": [
        {
          "internalType": "address",
          "name": "",
          "type": "address"
        }
      ],
      "stateMutability": "view",
      "type": "function"
    },
    {
      "inputs": [],
      "name": "renounceOwnership",
      "outputs": [],
      "stateMutability": "nonpayable",
      "type": "function"
    },
    {
      "inputs": [
        {
          "internalType": "address",
          "name": "",
          "type": "address"
        }
      ],
      "name": "reputations",
      "outputs": [
        {
          "internalType": "uint256",
          "name": "score",
          "type": "uint256"
        },
        {
          "internalType": "uint256",
          "name": "totalLoans",
          "type": "uint256"
        },
        {
          "internalType": "uint256",
          "name": "repaidLoans",
          "type": "uint256"
        },
        {
          "internalType": "uint256",
          "name": "defaultedLoans",
          "type": "uint256"
        },
        {
          "internalType": "uint256",
          "name": "lastUpdated",
          "type": "uint256"
        }
      ],
      "stateMutability": "view",
      "type": "function"
    },
    {
      "inputs": [
        {
          "internalType": "address",
          "name": "from",
          "type": "address"
        },
        {
          "internalType": "address",
          "name": "to",
          "type": "address"
        },
        {
          "internalType": "uint256",
          "name": "tokenId",
          "type": "uint256"
        }
      ],
      "name": "safeTransferFrom",
      "outputs": [],
      "stateMutability": "nonpayable",
      "type": "function"
    },
    {
      "inputs": [
        {
          "internalType": "address",
          "name": "",
          "type": "address"
        },
        {
          "internalType": "address",
          "name": "",
          "type": "address"
        },
        {
          "internalType": "uint256",
          "name": "",
          "type": "uint256"
        },
        {
          "internalType": "bytes",
          "name": "",
          "type": "bytes"
        }
      ],
      "name": "safeTransferFrom",
      "outputs": [],
      "stateMutability": "pure",
      "type": "function"
    },
    {
      "inputs": [
        {
          "internalType": "address",
          "name": "",
          "type": "address"
        },
        {
          "internalType": "bool",
          "name": "",
          "type": "bool"
        }
      ],
      "name": "setApprovalForAll",
      "outputs": [],
      "stateMutability": "pure",
      "type": "function"
    },
    {
      "inputs": [
        {
          "internalType": "address",
          "name": "_verifier",
          "type": "address"
        }
      ],
      "name": "setVerifier",
      "outputs": [],
      "stateMutability": "nonpayable",
      "type": "function"
    },
    {
      "inputs": [
        {
          "internalType": "bytes4",
          "name": "interfaceId",
          "type": "bytes4"
        }
      ],
      "name": "supportsInterface",
      "outputs": [
        {
          "internalType": "bool",
          "name": "",
          "type": "bool"
        }
      ],
      "stateMutability": "view",
      "type": "function"
    },
    {
      "inputs": [],
      "name": "symbol",
      "outputs": [
        {
          "internalType": "string",
          "name": "",
          "type": "string"
        }
      ],
      "stateMutability": "view",
      "type": "function"
    },
    {
      "inputs": [
        {
          "internalType": "uint256",
          "name": "tokenId",
          "type": "uint256"
        }
      ],
      "name": "tokenURI",
      "outputs": [
        {
          "internalType": "string",
          "name": "",
          "type": "string"
        }
      ],
      "stateMutability": "view",
      "type": "function"
    },
    {
      "inputs": [
        {
          "internalType": "address",
          "name": "",
          "type": "address"
        },
        {
          "internalType": "address",
          "name": "",
          "type": "address"
        },
        {
          "internalType": "uint256",
          "name": "",
          "type": "uint256"
        }
      ],
      "name": "transferFrom",
      "outputs": [],
      "stateMutability": "pure",
      "type": "function"
    },
    {
      "inputs": [
        {
          "internalType": "address",
          "name": "newOwner",
          "type": "address"
        }
      ],
      "name": "transferOwnership",
      "outputs": [],
      "stateMutability": "nonpayable",
      "type": "function"
    },
    {
      "inputs": [
        {
          "internalType": "address",
          "name": "user",
          "type": "address"
        },
        {
          "internalType": "uint256",
          "name": "newScore",
          "type": "uint256"
        },
        {
          "internalType": "bytes32",
          "name": "proofHash",
          "type": "bytes32"
        },
        {
          "internalType": "bool",
          "name": "isRepayment",
          "type": "bool"
        },
        {
          "internalType": "string",
          "name": "reason",
          "type": "string"
        }
      ],
      "name": "updateScore",
      "outputs": [],
      "stateMutability": "nonpayable",
      "type": "function"
    },
    {
      "inputs": [],
      "name": "verifier",
      "outputs": [
        {
          "internalType": "address",
          "name": "",
          "type": "address"
        }
      ],
      "stateMutability": "view",
      "type": "function"
    }
  ],
  "bytecode": "0x608060405234801561000f575f5ffd5b50336040518060400160405280601281526020017121b932b234ba2c102932b83aba30ba34b7b760711b81525060405180604001604052806005815260200164043585245560dc1b815250815f908161006891906101a2565b50600161007582826101a2565b5050506001600160a01b0381166100a557604051631e4fbdf760e01b81525f600482015260240160405180910390fd5b6100ae816100b9565b506001600a5561025c565b600680546001600160a01b038381166001600160a01b0319831681179093556040519116919082907f8be0079c531659141344cd1fd0a4f28419497f9722a3daafe3b4186f6b6457e0905f90a35050565b634e487b7160e01b5f52604160045260245ffd5b600181811c9082168061013257607f821691505b60208210810361015057634e487b7160e01b5f52602260045260245ffd5b50919050565b601f82111561019d57805f5260205f20601f840160051c8101602085101561017b5750805b601f840160051c820191505b8181101561019a575f8155600101610187565b50505b505050565b81516001600160401b038111156101bb576101bb61010a565b6101cf816101c9845461011e565b84610156565b6020601f821160018114610201575f83156101ea5750848201515b5f19600385901b1c1916600184901b17845561019a565b5f84815260208120601f198516915b828110156102305787850151825560209485019460019092019101610210565b508482101561024d57868401515f19600387901b60f8161c191681555b50505050600190811b01905550565b6114ef806102695f395ff3fe608060405234801561000f575f5ffd5b5060043610610153575f3560e01c80637f29ee4c116100bf578063a22cb46511610079578063a22cb46514610389578063b88d4fde14610397578063c87b56dd146103a5578063d47875d0146103b8578063e985e9c5146103e0578063f2fde38b146103f3575f5ffd5b80637f29ee4c146102c05780638da5cb5b146102d3578063933a8681146102e4578063943ccab8146102f757806395d89b411461030a5780639c89a0e214610312575f5ffd5b80632b7ac3f3116101105780632b7ac3f31461024b57806342842e0e1461025e5780635437988d146102715780636352211e1461028457806370a0823114610297578063715018a6146102b8575f5ffd5b806301ffc9a71461015757806306fa15a71461017f57806306fdde03146101e3578063081812fc146101f8578063095ea7b31461022357806323b872dd14610238575b5f5ffd5b61016a6101653660046110f3565b610406565b60405190151581526020015b60405180910390f35b6101bb61018d366004611135565b60076020525f9081526040902080546001820154600283015460038401546004909401549293919290919085565b604080519586526020860194909452928401919091526060830152608082015260a001610176565b6101eb610457565b604051610176919061114e565b61020b610206366004611183565b6104e6565b6040516001600160a01b039091168152602001610176565b61023661023136600461119a565b61050d565b005b6102366102463660046111c2565b61055a565b60095461020b906001600160a01b031681565b61023661026c3660046111c2565b6105a2565b61023661027f366004611135565b6105c1565b61020b610292366004611183565b61061a565b6102aa6102a5366004611135565b610624565b604051908152602001610176565b610236610669565b61016a6102ce366004611135565b61067c565b6006546001600160a01b031661020b565b6102366102f236600461120b565b61068e565b61023661030536600461119a565b610862565b6101eb610a70565b61035c610320366004611135565b6001600160a01b03165f908152600760205260409020805460018201546002830154600384015460048501546005909501549395929491939092565b604080519687526020870195909552938501929092526060840152608083015260a082015260c001610176565b6102366102313660046112ac565b6102366102463660046112f1565b6101eb6103b3366004611183565b610a7f565b6102aa6103c6366004611135565b6001600160a01b03165f9081526007602052604090205490565b61016a6103ee3660046113ce565b610af0565b610236610401366004611135565b610b1d565b5f6001600160e01b031982166380ac58cd60e01b148061043657506001600160e01b03198216635b5e139f60e01b145b8061045157506301ffc9a760e01b6001600160e01b03198316145b92915050565b60605f8054610465906113f6565b80601f0160208091040260200160405190810160405280929190818152602001828054610491906113f6565b80156104dc5780601f106104b3576101008083540402835291602001916104dc565b820191905f5260205f20905b8154815290600101906020018083116104bf57829003601f168201915b5050505050905090565b5f6104f082610b5a565b505f828152600460205260409020546001600160a01b0316610451565b60405162461bcd60e51b815260206004820152601d60248201527f536f756c626f756e643a20617070726f76616c732064697361626c656400000060448201526064015b60405180910390fd5b60405162461bcd60e51b815260206004820152601d60248201527f536f756c626f756e643a207472616e73666572732064697361626c65640000006044820152606401610551565b6105bc83838360405180602001604052805f81525061055a565b505050565b6105c9610b92565b600980546001600160a01b038381166001600160a01b0319831681179093556040519116919082907f0243549a92b2412f7a3caf7a2e56d65b8821b91345363faa5f57195384065fcc905f90a35050565b5f61045182610b5a565b5f6001600160a01b03821661064e576040516322718ad960e21b81525f6004820152602401610551565b506001600160a01b03165f9081526003602052604090205490565b610671610b92565b61067a5f610bbf565b565b5f5f61068783610624565b1192915050565b6009546001600160a01b031633146106e85760405162461bcd60e51b815260206004820152601f60248201527f4f6e6c792076657269666965722063616e207570646174652073636f726573006044820152606401610551565b5f6106f287610624565b116107385760405162461bcd60e51b81526020600482015260166024820152752ab9b2b9103430b9903737903932b83aba30ba34b7b760511b6044820152606401610551565b6103e88511156107855760405162461bcd60e51b8152602060048201526018602482015277053636f72652063616e6e6f742065786365656420313030360441b6044820152606401610551565b6001600160a01b0386165f908152600760205260408120805487825560018201805492939192916107b58361142e565b90915550504260048301556005820180546001810182555f91825260209091200186905584156107fa57600282018054905f6107f08361142e565b9190505550610811565b600382018054905f61080b8361142e565b91905055505b876001600160a01b03167f7e2add12a328a86680ec5cfd32c70eaa4590ecb9df3e614e146da05d547a5e30828987876040516108509493929190611452565b60405180910390a25050505050505050565b6009546001600160a01b031633146108bc5760405162461bcd60e51b815260206004820152601f60248201527f4f6e6c792076657269666965722063616e207570646174652073636f726573006044820152606401610551565b6108c582610624565b156109125760405162461bcd60e51b815260206004820152601b60248201527f5573657220616c7265616479206861732072657075746174696f6e00000000006044820152606401610551565b6103e881111561095f5760405162461bcd60e51b8152602060048201526018602482015277053636f72652063616e6e6f742065786365656420313030360441b6044820152606401610551565b600a80545f918261096f8361142e565b91905055905061097f8382610c10565b5f81815260086020908152604080832080546001600160a01b0319166001600160a01b038816908117909155815160c0810183528681528084018581528184018681526060830187815242608085019081528651898152808901885260a08601908152958952600788529590972083518155915160018301555160028201559451600386015591516004850155518051919392610a2492600585019290910190611096565b505060408051838152602081018590526001600160a01b03861692507f362ab3d62481fee5a6485ab9cf1aacce7a7e29ba4f4de3385005c64d42f2855b910160405180910390a2505050565b606060018054610465906113f6565b6060610a8a82610b5a565b505f610aa060408051602081019091525f815290565b90505f815111610abe5760405180602001604052805f815250610ae9565b80610ac884610c71565b604051602001610ad99291906114a5565b6040516020818303038152906040525b9392505050565b6001600160a01b039182165f90815260056020908152604080832093909416825291909152205460ff1690565b610b25610b92565b6001600160a01b038116610b4e57604051631e4fbdf760e01b81525f6004820152602401610551565b610b5781610bbf565b50565b5f818152600260205260408120546001600160a01b03168061045157604051637e27328960e01b815260048101849052602401610551565b6006546001600160a01b0316331461067a5760405163118cdaa760e01b8152336004820152602401610551565b600680546001600160a01b038381166001600160a01b0319831681179093556040519116919082907f8be0079c531659141344cd1fd0a4f28419497f9722a3daafe3b4186f6b6457e0905f90a35050565b6001600160a01b038216610c3957604051633250574960e11b81525f6004820152602401610551565b5f610c4583835f610d01565b90506001600160a01b038116156105bc576040516339e3563760e11b81525f6004820152602401610551565b60605f610c7d83610df3565b60010190505f8167ffffffffffffffff811115610c9c57610c9c6112dd565b6040519080825280601f01601f191660200182016040528015610cc6576020820181803683370190505b5090508181016020015b5f19016f181899199a1a9b1b9c1cb0b131b232b360811b600a86061a8153600a8504945084610cd057509392505050565b5f828152600260205260408120546001600160a01b0390811690831615610d2d57610d2d818486610eca565b6001600160a01b03811615610d6757610d485f855f5f610f2e565b6001600160a01b0381165f90815260036020526040902080545f190190555b6001600160a01b03851615610d95576001600160a01b0385165f908152600360205260409020805460010190555b5f8481526002602052604080822080546001600160a01b0319166001600160a01b0389811691821790925591518793918516917fddf252ad1be2c89b69c2b068fc378daa952ba7f163c4a11628f55a4df523b3ef91a4949350505050565b5f8072184f03e93ff9f4daa797ed6e38ed64bf6a1f0160401b8310610e315772184f03e93ff9f4daa797ed6e38ed64bf6a1f0160401b830492506040015b6d04ee2d6d415b85acef81000000008310610e5d576d04ee2d6d415b85acef8100000000830492506020015b662386f26fc100008310610e7b57662386f26fc10000830492506010015b6305f5e1008310610e93576305f5e100830492506008015b6127108310610ea757612710830492506004015b60648310610eb9576064830492506002015b600a83106104515760010192915050565b610ed5838383611032565b6105bc576001600160a01b038316610f0357604051637e27328960e01b815260048101829052602401610551565b60405163177e802f60e01b81526001600160a01b038316600482015260248101829052604401610551565b8080610f4257506001600160a01b03821615155b15611003575f610f5184610b5a565b90506001600160a01b03831615801590610f7d5750826001600160a01b0316816001600160a01b031614155b8015610f905750610f8e8184610af0565b155b15610fb95760405163a9fbf51f60e01b81526001600160a01b0384166004820152602401610551565b81156110015783856001600160a01b0316826001600160a01b03167f8c5be1e5ebec7d5bd14f71427d1e84f3dd0314c0f7b2291e5b200ac8c7c3b92560405160405180910390a45b505b50505f90815260046020526040902080546001600160a01b0319166001600160a01b0392909216919091179055565b5f6001600160a01b0383161580159061108e5750826001600160a01b0316846001600160a01b0316148061106b575061106b8484610af0565b8061108e57505f828152600460205260409020546001600160a01b038481169116145b949350505050565b828054828255905f5260205f209081019282156110cf579160200282015b828111156110cf5782518255916020019190600101906110b4565b506110db9291506110df565b5090565b5b808211156110db575f81556001016110e0565b5f60208284031215611103575f5ffd5b81356001600160e01b031981168114610ae9575f5ffd5b80356001600160a01b0381168114611130575f5ffd5b919050565b5f60208284031215611145575f5ffd5b610ae98261111a565b602081525f82518060208401528060208501604085015e5f604082850101526040601f19601f83011684010191505092915050565b5f60208284031215611193575f5ffd5b5035919050565b5f5f604083850312156111ab575f5ffd5b6111b48361111a565b946020939093013593505050565b5f5f5f606084860312156111d4575f5ffd5b6111dd8461111a565b92506111eb6020850161111a565b929592945050506040919091013590565b80358015158114611130575f5ffd5b5f5f5f5f5f5f60a08789031215611220575f5ffd5b6112298761111a565b95506020870135945060408701359350611245606088016111fc565b9250608087013567ffffffffffffffff811115611260575f5ffd5b8701601f81018913611270575f5ffd5b803567ffffffffffffffff811115611286575f5ffd5b896020828401011115611297575f5ffd5b60208201935080925050509295509295509295565b5f5f604083850312156112bd575f5ffd5b6112c68361111a565b91506112d4602084016111fc565b90509250929050565b634e487b7160e01b5f52604160045260245ffd5b5f5f5f5f60808587031215611304575f5ffd5b61130d8561111a565b935061131b6020860161111a565b925060408501359150606085013567ffffffffffffffff81111561133d575f5ffd5b8501601f8101871361134d575f5ffd5b803567ffffffffffffffff811115611367576113676112dd565b604051601f8201601f19908116603f0116810167ffffffffffffffff81118282101715611396576113966112dd565b6040528181528282016020018910156113ad575f5ffd5b816020840160208301375f6020838301015280935050505092959194509250565b5f5f604083850312156113df575f5ffd5b6113e88361111a565b91506112d46020840161111a565b600181811c9082168061140a57607f821691505b60208210810361142857634e487b7160e01b5f52602260045260245ffd5b50919050565b5f6001820161144b57634e487b7160e01b5f52601160045260245ffd5b5060010190565b84815283602082015260606040820152816060820152818360808301375f818301608090810191909152601f909201601f191601019392505050565b5f81518060208401855e5f93019283525090919050565b5f61108e6114b3838661148e565b8461148e56fea26469706673582212201b1d283c3cf9f1b908cbb3558bf63b974891f74d3593d1a6ee57307b1e791e8364736f6c634300081c0033",
  "linkReferences": {},
  "deployedLinkReferences": {}
}